:1000000000000320D10100004D9B0000059B000073
:10001000059B0000059B0000059B0000059B000060
:10002000059B0000059B0000059B00004D9B000008
:100030004D9B0000059B000035AF000039B000006B
:100040004D9B00004D9B00004D9B00004D9B000010
:100050004D9B00004D9B00004D9B00004D9B000000
:100060004D9B00004D9B00004D9B00004D9B0000F0
:100070004D9B00004D9B00004D9B00004D9B0000E0
:100080004D9B00004D9B00004D9B00004D9B0000D0
:100090004D9B00004D9B00004D9B00004D9B0000C0
:1000A0004D9B00004D9B00004D9B00004D9B0000B0
:1000B0004D9B00004D9B00004D9B00009DB8000033
:1000C0004D9B0000C9B900004D9B0000F5BA00002F
:1000D0004D9B0000EDBB00004D9B00004D9B0000C0
:1000E0004D9B00004D9B00004D9B00004D9B000070
:1000F0004D9B00004D9B00004D9B00004D9B000060
:100100004D9B00004D9B00004D9B00004D9B00004F
:100110004D9B0000E9A100004D9B00004D9B00009D
:100120004D9B00004D9B00004D9B00004D9B00002F
:100130004D9B00004D9B00004D9B00004D9B00001F
:100140004D9B00004D9B0000E5BC00004D9B000056
:100150004D9B00004D9B00004D9B00004D9B0000FF
:100160004D9B00004D9B00004D9B000085910000C1
:10017000B591000091910000B1910000AD91000097
:100180009D910000516D00004D9B00004D9B0000B3
:100190004D9B00004D9B0000DDBD00004D9B00000D
:1001A0004D9B00004D9B00004D9B00004D9B0000AF
:1001B0004D9B00004D9B0000B9910000E9910000AB
:1001C000C5910000E5910000E1910000D19100008F
:1001D0005C4B4CF2205210B51A804DF628121A8052
:1001E00000BF00BF09F0B6FC574B4FF030621A60F9
:1001F000564A9A60564ADA60564B4FF470021A60BB
:10020000554B564A1A60564A136813F4807304D14A
:1002100054490B604FF4A8531360534B1A781107DD
:1002200003D51A7842F008021A70504B5049AA229E
:100230001A70504A504B8B4204D252F8040F43F8C4
:10024000040BF8E74D4B4E4900228B4202D243F893
:10025000042BFAE74B494C4A002352F8230041F89B
:1002600023000133742BF8D1484B494A802103F80D
:10027000011B9342FBD1474B424A1A60464B8A22EC
:100280001A70A3F5805324225A70A0221A709A790A
:100290009207FCD59A79D406FCD4404A937903F0AE
:1002A0000C03082BFAD13E4B60221A7002331A78E5
:1002B000802AFCD1394B01221A715D225A719A7938
:1002C0009006FCD59979354A4906FBD5354B364918
:1002D00019600021596020231370937903F00C03F7
:1002E0000C2BFAD1314B324A1A60324B324A1A6027
:1002F00000225A60072243F8042C304AC3F80C2D20
:1003000062B609F003FE174B1B68DA0705D52C48C7
:1003100009F05AFD2B4B2C4A1A602C4B1B785B06BC
:1003200009D5284C284B22689A4204D1244809F068
:100330004BFD002323600CF05FFC09F011FC0BF077
:1003400085F9FEE70E20054030800440823F04001E
:100350000100002B88ED00E0002008E0030000858C
:1003600010D0034014D0034002D0074000E0074003
:100370000015FF1F681D01003007FF1F0015FF1F3C
:10038000508BFF1F0002FF1F0000000000E400E090
:1003900064E400E008ED00E0005006400040064044
:1003A00001E007404480044000000602048004404D
:1003B000C010070014E000E01FBF02000000202072
:1003C000FA8A7F5C1CE00340A5C3945A00F0074002
:1003D000FFFFFFFFFFFFFFFFFFFFFFFFFFFFFFFF2D
:1003E000FFFFFFFFFFFFFFFFFFFFFFFFFFFFFFFF1D
:1003F000FFFFFFFFFFFFFFFFFFFFFFFFFFFFFFFF0D
:10040000FFFFFFFFFFFFFFFFFFFFFFFFDEF9FFFF23
:1004100010B5054C237833B9044B13B10448AFF33E
:1004200000800123237010BD0015FF1F0000000095
:10043000641D0100084B10B51BB108490848AFF313
:1004400000800848036803B910BD074B002BFBD0A0
:10045000BDE81040184700BF000000000415FF1F52
:10046000641D01000015FF1F000000000020704700
:100470004FF0FF30704700BF0A2970B50C460546A3
:1004800006D06868036821461B68BDE870401847BD
:10049000406803680D211B689847F2E70020704709
:1004A000002070470120704700207047704700BF50
:1004B000054B064A1B6882B001930199044B1160F9
:1004C00001221A7002B07047E086FF1F8015FF1FDF
:1004D0002820FF1F704700BF704700BF0023034A5A
:1004E00019460E20137009F081BC00BF1920FF1FB0
:1004F0000123034A19460E20137009F077BC00BF90
:100500001920FF1F836C13B1184604F0A7BAC06C02
:1005100008B102F033BA4FF0FF30704710B5034B0B
:100520000360044601F0BAFF204610BD9C0D010097
:1005300008B509F075FC034B1860BDE8084009F0E8
:100540003DBC00BF6815FF1FF8B50D46064609F013
:100550009BF8044609F088F8074609F075F8A4F2FC
:10056000BC739BB27F2B02D8FAB20C2A22D900238B
:10057000338009F039F8064609F046F8044609F0D8
:1005800053F8F3B2172B12D8E3B23B2B0FD8C3B2F8
:100590003B2B0CD8F302640103F4FF2304F4FF5453
:1005A0002343C0F3460003439BB22B80F8BD0023D6
:1005B0002B80F8BDC0B21F28D9D87F0107F4FF57A0
:1005C000384340EA43239BB2D2E700BF00B5836CB7
:1005D00083B063B1184601220DF1070104F070F9F0
:1005E00001280CD19DF8070003B05DF804FBC06C36
:1005F00028B101220DF1070102F0EAF8F0E74FF00F
:10060000FF30F1E710B5002184B00446252009F041
:10061000EDFB2246E37B52F8101B009209480122B1
:1006200007F0DEFE084B094A196803911368084970
:1006300003980860013301212520136009F0D6FBDF
:1006400004B010BDD815FF1FE086FF1FBC15FF1FAB
:10065000D015FF1F10B5002182B00446272009F0F5
:10066000C5FB2146094808F071FB094B094A196886
:10067000019113680849019808600133012127207E
:10068000136009F0B3FB02B010BD00BFE820FF1FEC
:10069000E086FF1FB415FF1FC815FF1F10B500210E
:1006A00082B00446262009F0A1FB2146094808F043
:1006B0004DFB094B094A19680191136808490198D3
:1006C0000860013301212620136009F08FFB02B07E
:1006D00010BD00BFD053FF1FE086FF1FB815FF1FDE
:1006E000CC15FF1F836C13B1184604F0D1BAC06C4F
:1006F00008B102F077BE7047826C62B1137803F0E4
:10070000080303F0FF0003B3D3695069181A48BF08
:100710006FF000407047C16CC1B191F8313003F007
:10072000080303F0FF0083B1D1E90423D1E90001FC
:10073000101A30B463EB010100256FF000448D42C4
:1007400008BF844200D2204630BC7047084670473C
:10075000F0B5184B1968ADF5017D21B102460123B2
:10076000154801F0AFFE144EB06C374698B14FF407
:100770000072694604F0A4F8002815DD0DF1FF347D
:100780000DF2FF1514F8010F0AF0F2FAA542F9D1A3
:10079000B06C0028EBD1F86C30B14FF400726946B0
:1007A00002F016F80028E9DC044B00221A700DF55F
:1007B000017DF0BD9820FF1F2C20FF1F0A20FF1F86
:1007C00000B5836C83B08DF8071043B11846012241
:1007D0000DF1070104F09EFA03B05DF804FBC06C54
:1007E0000028F9D001220DF1070102F013FF03B038
:1007F0005DF804FBF0B5194EB06CADF5037D3746DE
:10080000F8B14FF4007202A904F05AF8002821DD73
:100810000DF107040DF2072514F8012F104901A866
:100820000DF002F801A80DF08BF8014601A80AF0BE
:100830001BFAAC42F0D10B480AF01AFCB06C00284D
:10084000DFD1F86C30B14FF4007202A901F0C0FFA3
:100850000028DDDC0DF5037DF0BD00BF2C20FF1F5F
:10086000B80D01009C0AFF1FF0B5274C274883B044
:1008700021464FF4FE7208F071FF254BC4F8FC01CD
:10088000986C002836D021464FF4007204F042FAEA
:100890001F48204F204E214D01F000FE0422082168
:1008A0001F4809F09DF8642009F0DEFA0C211D486C
:1008B0000AF0DAF91C480DF043F801461A480AF02C
:1008C000D3F91A480AF0D4FB19481A4A00240094B4
:1008D0002346214604703C60174834602C6008F0C1
:1008E00075F8009423462146124A144808F06EF821
:1008F00003B0F0BDD86C0028CAD021464FF4007276
:1009000002F088FEC4E700BFB81DFF1FD415FF1F0B
:100910002C20FF1F8815FF1F641DFF1F681DFF1F70
:10092000A815FF1FC00D01000C20FF1F9C0AFF1F10
:100930008D20FF1FB886FF1FE820FF1FD053FF1F29
:10094000FFF792BF70B5446808460D460CF0F8FFFB
:1009500023680246294620465B68BDE87040184778
:1009600038B5044608460D460CF0EAFF23680246F7
:1009700029465B6820469847054620460AF078FBE2
:10098000284438BD10B5214B9A6C8EB0002A36D061
:100990001F4BD3F87844CCB12146012300241D4AD3
:1009A0008DF8004068468DF801408DF8024003F054
:1009B00079FFD8B1184B196821B10123154A1348A2
:1009C00001F080FDFFF716FF0EB010BDD3F87C14C8
:1009D00061B101230F4A8DF8314068468DF83240ED
:1009E0008DF8334002F0DEFA0028E3D11B210B48DA
:1009F0000AF03AF90A480AF03BFB0EB010BDDB6C76
:100A0000002BC5D1FFF730FFC2E700BF2C20FF1F2E
:100A1000F815FF1F0C20FF1F9820FF1FD00D0100AD
:100A20009C0AFF1FF0B5334B9A6C8FB00746002A23
:100A300059D0314DD5F87844BCB1214668460024E0
:100A400001233A466E468DF800408DF801408DF83E
:100A5000024003F027FFD0B91B2128480AF004F90F
:100A600027480AF005FB0FB0F0BDD5F87C1400292B
:100A7000F2D0684601233A466E468DF831408DF833
:100A800032408DF8334002F08DFA0028E4D0D5F8DA
:100A90007844194B94B121463A460024022330464B
:100AA0008DF800408DF801408DF8024003F0FAFE09
:100AB0000028D8D0304604F0E9FBD4E7D3F87C1402
:100AC0000029D0D03A46022330468DF831408DF8C7
:100AD00032408DF8334002F065FA0028C3D030462A
:100AE00002F06CFBBFE7DB6C002BA2D1FFF7BCFE72
:100AF0009FE700BF2C20FF1FF815FF1FD00D01003E
:100B00009C0AFF1F30B51B4B9A6C8FB005465AB339
:100B1000194BD3F87844BCB12146012300242A465E
:100B200068468DF800408DF801408DF8024003F0D2
:100B3000B9FE20B12846FFF70BFE0FB030BD0F4BBA
:100B400001221A700FB030BDD3F87C140029F6D002
:100B500001232A4668468DF831408DF832408DF8E1
:100B6000334002F01FFAE4E7DB6C002BD0D1FFF733
:100B70007BFECDE72C20FF1FF815FF1F0A20FF1F6B
:100B80002DE9F04F424B434DD3F87874A3B00026C3
:100B90004FF47A720E9581468DF83C608DF8446072
:100BA000209621961092002F5DD039466846012389
:100BB0004A466C468DF800608DF801608DF8026041
:100BC00003F070FEC0B1344B19680DF1380821B143
:100BD0004A464046012301F075FC2098002853D076
:100BE0006FF0004A4FF0000B20B303781A070FD4C0
:100BF0002A4B00221A7004E00DF13808274B01221D
:100C00001A7040460E9501F049FC23B0BDE8F08F04
:100C1000C26943699A42EBD00122214603F050FE9B
:100C200001280CBF9DF80000FF200AF0A1F82098D1
:100C30000028DAD121980028DAD090F831301B074B
:100C4000D6D5D0E90423D0E90067921B63EB0703F4
:100C50009B4508BF924501D3002AC9D001222146F5
:100C600001F0B6FDDCE7D3F87C140029C4D0684657
:100C700001234A466C468DF831708DF832708DF83C
:100C8000337002F08FF99DE7219B002BA8D1B5E7C7
:100C9000F815FF1F9C0D01009820FF1F0A20FF1F61
:100CA00010B5044614F8013B184633B12E2BF9D089
:100CB0000BF0CAFF0028F5D110BD012010BD00BF08
:100CC00084B030B593B016AC84E80F009DF8705036
:100CD0009DF8674009F0A4F89DF8663016990090D9
:100CE00003F001032A46029301911D9B15490394C9
:100CF00005A80CF099FD05A80CF022FE014605A8F8
:100D000009F0B2FFACB1651EEDB2103516AB1D4453
:100D10000DF1670414F8012F0B4904A80CF084FDB1
:100D200004A80CF00DFE014604A809F09DFFAC429A
:100D3000F0D106480AF09CF913B0BDE8304004B089
:100D4000704700BFEC0D0100080E01009C0AFF1F58
:100D500070B5134C04F59165264601210E2009F06B
:100D600045F8322009F080F800210E2009F03EF805
:100D7000322009F079F84FF000010A4806F000F837
:100D80000848C4F8845405F021FC0028E5D1D6F8C1
:100D90008414034801F0DAFB0028DED070BD00BFE8
:100DA000F815FF1F801AFF1F204B99784A1CD2B2FA
:100DB0003A2A9A701BD05B2A26D02F392A2984BF61
:100DC00030229A705A783A2A16D05B2A23D0303AC9
:100DD0002A2A84BF30229A701A783A2A11D05B2AC4
:100DE00020D0303A2A2A84BF30229A70704741229C
:100DF0009A705A783A2AE8D141225A701A783A2AD7
:100E0000EDD141221A7070475A780132D2B23021A6
:100E10005A709970D7E71A780132D2B230211A701D
:100E20005970DAE730221A70704700BFA815FF1F0B
:100E300010B584B0FFF7B8FF254B00932549264B2A
:100E4000264A27480CF0F0FC264B1968D9B14323F9
:100E5000234A254801F036FBA8B1234B234A9C6C5A
:100E6000042111802CB30021204603F02DFEE0B9AF
:100E70001F4B204A1B68039303991F4B11600122EB
:100E80001A7004B010BD0E211C4809F0EDFE1C487C
:100E90000AF0EEF812480CF053FD0146104809F034
:100EA000E3FE17480AF0E4F8D7E7204603F0F6FE21
:100EB000DEE7DC6C002CDBD000220023204601F0B2
:100EC00075FD0028D4D0204602F032FBD0E700BFE9
:100ED000A815FF1F100E0100F415FF1F3815FF1F86
:100EE0000C20FF1F9820FF1F2C20FF1F6C15FF1FD9
:100EF000E086FF1F6015FF1F8D20FF1F1C0E0100E5
:100F00009C0AFF1FF0B54D4B1B7883B0002B00F0FF
:100F1000848008F085FF4A4ADFF86CE1494B4A4C6F
:100F20004A4F4B4E054692E803001860DEF8000079
:100F3000C4F8DF013868474AC4F8E3013068197122
:100F4000C4F8E7010423444E44481380266007F0A8
:100F500023FF84F8EB01424807F01EFF84F8EC0100
:100F6000404807F099FA84F8ED013C4807F01AFF71
:100F700084F8EE013A4807F015FF84F8EF0139488C
:100F800007F08EFA384B84F8F00103CB4FF4FE7271
:100F9000C4F8F101C4F8F5113448214608F0DEFB2D
:100FA000334BC4F8FC01986C70B34FF400722146C7
:100FB00003F0B0FEB0F5007F1CD14FF40072FF21AA
:100FC00021482C4E0CF0D4F908F02AFF02AA401B4D
:100FD0000190337832F8040D27499278A4F8F9018A
:100FE00083F001038A7005201946337008F0FEFE75
:100FF00003B0F0BD0C21214809F036FE20480AF06C
:1010000037F8FFF7A5FED8E7D86C0028F2D04FF4E8
:101010000072214602F0FEFACCE7FFF709FF0C212F
:10102000184809F021FE10480CF08AFC01460E48D1
:1010300009F01AFE12480AF01BF86AE78D20FF1F1C
:101040004C0E01005C1DFF1FB81DFF1F641DFF1F1C
:10105000681DFF1F6C15FF1F43414E32E820FF1F24
:10106000D053FF1FD815FF1F0C20FF1FD415FF1FE3
:101070002C20FF1FB01AFF1FB11FFF1F3C0E0100E5
:101080009C0AFF1F2C0E01008815FF1FF0B52E4A89
:101090002E49137809682E4E2E4D2F4C85B083F0C3
:1010A000010303912D490398086019460620137027
:1010B00008F09CFE2A4A33881278EA5401333380C0
:1010C00008F042FA04AA338842F80C0D191D106882
:1010D000E85089B203F108026068685092B2206853
:1010E000E77BA8500C33338008F09AFE1D4A338802
:1010F0001268D4F800E0801A04A920F07F403F066F
:10110000074341F8087D1A1D0868E850103403CCE5
:1011100092B20C33AC189BB21EF0005FA850338023
:10112000616006D1B3F5ED7F01D9FFF7EBFE05B0A5
:10113000F0BD0D4A137883F0010319460E20137099
:1011400008F054FE3388EDE7C015FF1FE086FF1F4F
:101150006C15FF1FB81DFF1F8C15FF1F6015FF1FAB
:10116000591DFF1F6815FF1F1920FF1F2DE9F043B0
:101170004FF4807187B0C948C94ECA4D0AF030F9A2
:101180000121272008F046FE0121262008F042FE1A
:101190000121252008F03EFE0021272008F026FE30
:1011A0000021262008F022FE0121252008F01EFE45
:1011B00001210F2008F02EFE01210F2008F016FE5D
:1011C0000121062008F026FE0121052008F022FE5C
:1011D00001210E20012408F01DFEB34B347021467E
:1011E00006201C702C7008F001FE3178052008F0F4
:1011F000FDFD29780E2008F0F9FD0221142008F0E9
:1012000009FEAA49AA4808F031F8AA49A84808F0F6
:101210002FF8A949A64808F02DF8A849A44808F0D5
:101220002BF8A749A24808F029F83221A04808F075
:1012300017F84FF4FA619E4808F016F84FF4FA7167
:101240009B4808F00FF82146022008F0E3FD00213A
:10125000022008F0CBFD14219A4809F005FD9A48B8
:1012600009F006FF21469948002507F0B1F921460B
:10127000974807F0ADF92B4629460095954A9348C3
:1012800007F0A4FB2B46934A009529469048924DBF
:1012900007F09CFB21468D4807F032FA21468C4826
:1012A00007F02EFA2146894807F0A6F9214688481A
:1012B00007F0A2F9AA7B8948234608261443032194
:1012C0000C22AC73EE7307F03BF8002840F09781D6
:1012D0002121834809F0C8FC7B4809F0C9FE0021A0
:1012E0007E4806F089FD7F4808F0E8F908F0DEF94D
:1012F000022814BF7C487D481B2109F0B5FC7248C8
:1013000009F0B6FE012008F0E7F908F0BDF904463F
:1013100008F0AAF9054608F097F9814608F064F943
:10132000064608F071F9074608F07EF9804608F095
:1013300077FD6F4BCDF800901968CDF80C80401AFE
:101340002B4622466B490490029701966A486B4CE3
:101350000CF06AFA68480CF0F3FA0146664809F0A6
:1013600083FC594809F084FE04F59165644B654A95
:101370001A6028464FF0000105F002FD2846C4F827
:10138000845405F023F9002800F041812E215E48A5
:1013900009F06AFC4C4809F06BFEFFF7D9FC1821F4
:1013A0005A4809F061FCD4F87834544A002B00F014
:1013B0004881D969013900230A22434809F068FEAF
:1013C000414809F055FE1721514809F04DFCD4F869
:1013D00078044A4B002800F03C8104F017FC0146D9
:1013E00000230A22384809F053FE374809F040FE2E
:1013F000D4F87804414B002800F01C8104F006FC6E
:1014000041F28733984240F20B81424D42482C60B2
:101410001B2109F029FC296821B163233F4A404878
:1014200001F050F808F030F9044608F01DF90546BF
:1014300008F00AF9804608F0D7F8064608F0E4F804
:10144000074608F0F1F8224A204BCDF8008043F21D
:10145000E42103905058595804912B4622463149B3
:1014600001960590029724482F4E0CF0DDF9224892
:101470000CF066FA20490246294809F0E5FD2848A3
:1014800009F0F6FD264801F009F80521274809F082
:10149000EBFB0D4809F0ECFD172149E07015FF1F2B
:1014A000B01AFF1F1920FF1FC015FF1FB104000055
:1014B0006C1DFF1F41090000D5040000DD04000081
:1014C000F1040000540E01009C0AFF1FE820FF1FDA
:1014D000D053FF1FB886FF1F3C15FF1FD815FF1FF5
:1014E0006C0E010031050000B00E0100CC0E0100B1
:1014F0006815FF1FE80E0100B81AFF1FF815FF1F3F
:10150000E420FF1F490500000C0F01003C0F010003
:10151000580F01009820FF1FA40F0100C00F010009
:10152000B81FFF1FD00F0100F415FF1FF40F0100BB
:101530004C4809F099FB35460424204608F008FA87
:101540000134082C05F8010BF7D14748474DFFF748
:10155000A7FB0422464B44483360114608F040FA8A
:10156000204608F0F5F901340C2C05F8010BF7D1F1
:101570003E4C2046FFF794FB08B93E4B23600C20FD
:1015800008F0E6F93C4C20700D2008F0E1F960709D
:101590000E2008F0DDF9A0702046FFF781FB20B98E
:1015A000364B1B6823801B0CA3700521344809F0BF
:1015B0005BFB344809F05CFD2B4B2F4A3249334822
:1015C0000CF032F91721324809F04EFB2F480CF08D
:1015D000B7F901462D4809F047FB2A4809F048FDB4
:1015E0002C4B0122022115201A7008F013FC2A4905
:1015F0000322152007B0BDE8F04308F063BB1D21AE
:10160000264809F031FB1F4809F032FD67E6D4F89F
:101610008414204600F09AFF00283FF4B7AEBEE6DF
:1016200031211F4809F020FB164809F021FDFFF782
:101630008FFBEAE6D3F87C040028F1D002F0E6FE46
:10164000DEE6D2F87C1400293FF4B5AED1F82814B8
:10165000B1E6D3F87C0418B102F0D8FE0146BFE62B
:101660000146BDE6FC0F0100F415FF1FA815FF1F82
:1016700032414100303030003815FF1F3410010076
:10168000F40F01009C0AFF1F14100100B01DFF1F82
:101690001C1001004608FF1F69080000900E0100A1
:1016A000700F010030B5414B1B7889B0002B5CD125
:1016B0003F4B404C1B78002B47D123683D4913F02A
:1016C000005412D03C4B1B78002B35D13B4A136899
:1016D000013313603A4A137883F0010319460E2050
:1016E000137008F083FB09B030BD364A10461A402B
:1016F0008242F8D10B7C03F0F003102BF3D12E4B78
:1017000031481B7831494474032530228474C573F1
:1017100001600274002B30D0012B3AD0022BE2D1B1
:101720002B4B2C4A1B680793079B12689B1A012BB3
:10173000D9D9FEF767FFD6E7012B19D0022BC9D103
:10174000254A136801331360C4E704F1100393E8DA
:101750000300224A136803938DE8030000230293D9
:1017600094E80F00FFF7ACFAA7E7FFF78FFC9FE7BD
:101770001B4A136801331360ACE7154B194A1B6809
:101780000593059B12689B1A012BACD9FEF762FFEB
:10179000A9E70F4B144A1B680693069B12689B1A15
:1017A000012BA0D9FEF77AFF9DE700BF4608FF1F77
:1017B0008415FF1F8C15FF1F591DFF1FA415FF1F48
:1017C0001920FF1F00F9DA003C15FF1FF900DA1895
:1017D000E086FF1FD015FF1FAC15FF1F8815FF1FE8
:1017E0002020FF1FC815FF1FCC15FF1FFFFFFFFFA5
:1017F000454BD3F878042DE9704300286FD0C469B5
:10180000057904F003FA013C064618213F4809F027
:101810002BFA00230A2221463D4809F039FC3C48B6
:1018200009F026FC17213B4809F01EFA00230A2282
:101830003146374809F02CFC354809F019FC1521D0
:10184000354809F011FA00230A222946304809F0E8
:101850001FFC2F4809F00CFC1121304809F004FA54
:1018600028460AF0BDFC8046894630460AF0B8FC9E
:1018700042464B460AF02AFD00224FF081430AF00F
:1018800025FD1FA3D3E900230AF04AFE41EC100B0B
:1018900002211F4809F03CFC1D4809F0E9FB122118
:1018A0001F4809F0E1F920460AF09AFC42464B46EF
:1018B0000AF00CFD00224FF081430AF007FD10A34F
:1018C000D3E900230AF02CFE41EC100B0221104852
:1018D00009F01EFC0E48BDE8704309F0C9BBD3F8FF
:1018E0007C0448B190F83D34D0F8284401259D404F
:1018F00002F08CFD064688E705460446064684E766
:101900000000000080842E41F815FF1F3C0F0100ED
:101910009C0AFF1F580F01003810010050100100F1
:101920006410010070B517211548164C164D09F0CA
:101930009BF943F2E426154B0A22995920460023CD
:1019400009F0A6FB204609F093FB2846172109F071
:101950008BF90F4B0A2299592046002309F098FB76
:10196000204609F085FB2846172109F07DF906215C
:10197000084809F079F92046BDE8704009F078BBC5
:10198000E01001009C0AFF1FF8100100E820FF1F73
:10199000D053FF1F1011010010B514211548164C2B
:1019A00009F062F9154B0A2219682046002309F054
:1019B0006FFB204609F05CFB1421114809F054F933
:1019C000104B0A2219682046002309F061FB2046CB
:1019D00009F04EFB14210C4809F046F90B4B204648
:1019E00019680A22002309F053FB2046BDE8104085
:1019F00009F03EBB181101009C0AFF1FA415FF1F30
:101A0000301101002020FF1F48110100AC15FF1FFD
:101A100070B586B0FEF728FF184B194C194E0025FB
:101A20006420C3F87854C3F87C5408F01DFA2946A2
:101A3000204605F0A5F92046346004F0C7FD40B10A
:101A40001121114809F010F9104809F011FB06B0F6
:101A500070BD0E4B0E4A316801A801F0C7FF04218A
:101A60000C4809F001F9094809F002FB642008F06C
:101A7000FBF9FFF76DF906B070BD00BFF815FF1F49
:101A8000281DFF1F1C1BFF1F601101009C0AFF1F68
:101A9000281BFF1F741101002DE9F04372497348A0
:101AA00093B007F0F7F8002840F0CB816E497048FA
:101AB00007F0F0F830B16F4A6F4913680120034412
:101AC000136008706D4E6E4D6E4C0094334629467F
:101AD0006D4A6E4806F0BEFC98B9634A6C4F317887
:101AE000D17394E803003B68DFF88CE12D68156042
:101AF00002F1100484E80300013302213B608EF8F8
:101B00000010644C644D23680293029B2A689B1A60
:101B1000B3F57A7F04D3614B1B78002B40F08281B0
:101B20005F4F3B78002B00F0DB80DFF8AC8198F84A
:101B30000030022B00F27D8123685A4A0493049BF3
:101B4000106854491B1AC82B64D90B68564D06936C
:101B50000698DFF880E109682B88544E0591DEF87D
:101B600000C036F81330059910605148DFF86CE179
:101B70000374CCEB01021B0A03214374012A4FF0CA
:101B80000003C173C0F800E0837401D9FEF762FD61
:101B9000384B1B6853B12368464A0793079B12686A
:101BA0009B1A012B02D94248FEF778FD384B1B687F
:101BB00053B12368404A0893089B12689B1A012B73
:101BC00002D93B48FEF71EFD3C4A137883F001031F
:101BD00019460E20137008F009F92B88324A013398
:101BE0009BB21A2B40F23F8198F80030344D0133FC
:101BF000002488F80030148020461B2109F0DEFB09
:101C0000013436F8102035F8023F2A801B2C26F8C4
:101C10001030F1D108F0FEFF01281FDD78230A22E1
:101C20000EA8284909F070FB0EA9274809F042FCCC
:101C30000EA809F0CDFB25490EA809F009FC0EA954
:101C4000214809F087FC04460EA809F0C1FB002CCE
:101C500000F0BD80FEF796FE08F0EAFF1C4807F092
:101C60007BFB13B0BDE8F0838C15FF1FE820FF1F3E
:101C7000D053FF1F641DFF1F591DFF1FB015FF1F0D
:101C8000C415FF1FA81DFF1F9420FF1FD815FF1F9D
:101C9000681DFF1FE086FF1F6015FF1F8D20FF1FBF
:101CA0002820FF1F8015FF1F0820FF1F1008FF1F9F
:101CB0003C15FF1FCC15FF1FD015FF1F1920FF1F5C
:101CC0000E08FF1F9C0AFF1F7015FF1F7C110100EB
:101CD0006C1DFF1FC815FF1F581DFF1FF900EA18D4
:101CE0009C4A1178002995D0DFF8E49299F8001009
:101CF000022900F2B4802368974A0993099B11686E
:101D000096485B1AC82B85D90368954D0B930B9E9B
:101D1000944900682B88DFF8BC820A90D1F800E073
:101D2000914838F813300A9916604374CEEB0102DB
:101D30001B0A8E4E837408210223012AC173066098
:101D4000037401D9FEF786FC894B1B6853B12368E5
:101D5000884A0C930C9B12689B1A012B02D982486B
:101D6000FEF79CFC844B1B6853B12368834A0D9398
:101D70000D9B12689B1A012B02D97B48FEF742FC8F
:101D80007F4A137883F0010319460E20137008F080
:101D90002DF82B88724A01339BB21A2B63D999F81C
:101DA0000030784D784E0133002489F800301480DB
:101DB0002046092109F002FB013435F8023F36F8CC
:101DC00010202A80092C28F81030F1D122E76F4921
:101DD0000EA809F03DFB0EA96D4809F0BBFB0446B7
:101DE0000EA809F0F5FA002C35D16A490EA809F0C1
:101DF0002FFB0EA9664809F0E9FB05460EA809F07D
:101E0000E7FA002D31D021460422614809F002FC96
:101E100023460D220EA95E4809F0E2FB0EA8FEF74C
:101E200001FE19E7FEF720FD23680393039B2B6057
:101E300076E6484A00230121117088F800303B7093
:101E4000E8E6554A554913680020013313600870CD
:101E5000FFF728FC2AE65248FEF754FEFCE65149FB
:101E600013700B70D6E61380D4E64F490EA809F024
:101E7000EFFA0EA9464809F06DFB04460EA809F0DA
:101E8000A7FABCB949490EA809F0E2FA0EA94048E0
:101E900009F060FB04460EA809F09AFAA4B1444B7D
:101EA000444801220C211A7008F0DEFE424809F075
:101EB000DFF8D1E63E4B41481D700D2108F0D4FEFD
:101EC0003D4809F0D5F8C7E63D490EA809F0C0FA2B
:101ED0000EA92F4809F03EFB04460EA809F078FA37
:101EE00014B1FEF7C1FCB7E636490EA809F0B0FA06
:101EF0000EA9274809F02EFB04460EA809F068FA3F
:101F000014B1FFF775FCA7E62F490EA809F0A0FA57
:101F10000EA91F4809F01EFB04460EA809F058FA46
:101F2000002C59D0294CD4F8780430B1002300F2A9
:101F30003C401A46204903F085FCD4F87C04002874
:101F40003FF48AAE002300F588601A461A4901F072
:101F500073F881E65415FF1F1C20FF1FE086FF1F4A
:101F60000820FF1FC815FF1F3C15FF1FF900DA18D6
:101F7000641DFF1FCC15FF1F681DFF1FD015FF1F1D
:101F80001920FF1F4608FF1F1008FF1F80110100C6
:101F90007015FF1F841101008815FF1F591DFF1FB9
:101FA0000C20FF1F581DFF1F8C1101009411010010
:101FB0004608FF1FA01001009C0AFF1FB01001007F
:101FC0009C110100A0110100A4110100F815FF1FD0
:101FD0008C20FF1F4808FF1F6C490EA809F038FA33
:101FE0000EA96B4809F0B6FA04460EA809F0F0F9FC
:101FF000BCB1684CD4F8780430B100F23C40002306
:102000000E22654903F01EFCD4F87C0400283FF43E
:1020100023AE00F5886000230E225F4901F00CF822
:102020001AE65E490EA809F013FA0EA9584809F0FD
:1020300091FA04460EA809F0CBF914B1FFF7E8FCB9
:102040000AE657490EA809F003FA0EA9504809F00C
:1020500081FA04460EA809F0BBF914B1FFF762FC3F
:10206000FAE550490EA809F0F3F90EA9484809F01D
:1020700071FA04460EA809F0ABF914B1FFF78CFC15
:10208000EAE549490EA809F0E3F90EA9404809F02C
:1020900061FA04460EA809F09BF93CB1434B444950
:1020A0003D4801221A70FEF75BFCD5E541490EA8B8
:1020B00009F0CEF90EA9364809F04CFA05460EA8EB
:1020C00009F086F935B1394B3B491C703248FEF7AF
:1020D00047FCC1E539490EA809F0BAF90EA92C4808
:1020E00009F038FA04460EA809F072F934B1012358
:1020F000334929483B70FEF733FCADE531490EA862
:1021000009F0A6F90EA9224809F024FA05460EA8FE
:1021100009F05EF93DB12C4B3C702C491C701E48F7
:10212000FEF71EFC98E52A490EA809F091F90EA9C0
:10213000174809F04BFA04460EA809F049F944B1D2
:10214000244B0FCB0EAC07C40EA82370FEF718FD6E
:1021500082E521490EA809F07BF90EA90C4809F087
:1021600035FA05460EA809F033F94DB123460D2284
:102170000EA9074809F034FA0EA8FEF7C3FC6BE578
:1021800016490548FEF7ECFB66E500BFA811010003
:102190007015FF1FF815FF1F9C0AFF1FB0110100EB
:1021A000B8110100C0110100C81101008415FF1F02
:1021B000C0100100D4110100D0100100E011010095
:1021C00078100100EC1101005415FF1F8C10010064
:1021D000F8110100C00F01003815FF1F04120100A3
:1021E0002DE9F04F93B007F067FB8648864D874E88
:1021F000874FDFF860A2DFF86092DFF8608207F0B7
:1022000079FA844B8449C3F8986400244FF0260B74
:10221000824EC3F888742A46C3F87844C3F87C44D5
:1022200083F8944483F8AB44C3F8AC4483F8A8B46F
:10223000C3F8B06418460AF0CDFC7949734E0C71AE
:102240004FF47A738B600193764B0C732A468C643F
:10225000CC640B60084651460AF0BCFCDFF800E293
:10226000019BCEF808308EF804408EF80C40704682
:102270006C4BCEF800302A465146CEF84840CEF896
:102280004C400AF0A7FC2146484609F0E1F82A46EE
:10229000414648460AF09EFCDFF8C8916248012397
:1022A0001A46142106F0B4FF2146484609F0D0F83A
:1022B0002A46414648460AF08DFC07F0B1FD5B4BCB
:1022C0000F2118605A4806F02DF85A4BDFF898C1D4
:1022D0001A680392DDF80C801A680492DDF810E0A9
:1022E0001A68059205981A68069206991A68079264
:1022F000079AD3F80090CDF82090CCF80080DFF852
:102300006C81DDF820A0D3F80090CDF82490C8F8B7
:1023100000E0DFF85CE1DDF824C0D3F80080CDF800
:102320002880CEF80000DFF84C814348C8F8002030
:102330000160DFF844E14148414A0A99CEF800A023
:10234000C0F800C011601A680B92DDF82C901A6872
:102350000C92DDF830C01A680D92DDF834E01A688E
:102360000E92DFF818810E981A680F92C8F8009044
:10237000DFF80C910F9ADFF80C8119681091C9F8F9
:1023800000C0DFF804911099C8F800E01B68DFF87E
:10239000FC801193C9F80000DFF8F4C029482A4BEB
:1023A000DFF8F0E0C8F80020DDF84480CCF8001039
:1023B000C0F800804FF0200C41F20A014FF00208F3
:1023C000CEF814408EF808C0CEF80C102A46DFF87C
:1023D000C8C08EF810801D4D8EF818401C7383F80D
:1023E00023405C620D4C1A491F6018461E6183F839
:1023F00020B09C628EE820100AF0ECFB13B0BDE820
:10240000F08F00BFD415FF1F0C08FF1F94140100AC
:10241000EC140100F815FF1FD90400000320003858
:102420002C20FF1F9C0D01006C1DFF1F6815FF1F56
:10243000D815FF1FE086FF1F9020FF1FC815FF1F44
:10244000CC15FF1FF015FF1F281DFF1F7C0D01007D
:10245000AD0400001D0500007C20FF1FD1B300006B
:10246000B81FFF1F7015FF1F2420FF1F5815FF1FE7
:10247000B41AFF1F241BFF1F5C15FF1FD015FF1F81
:102480008015FF1F1C20FF1F6015FF1F201BFF1F53
:102490006415FF1F1C15FF1F9C0AFF1F10B5044683
:1024A000806C28B102F070F910B10023A36410BD54
:1024B000E06C28B100F0BCF810B10023E36410BD5B
:1024C000002010BD00293BD02DE9F0410C46054607
:1024D00098461746FFF7E2FFD4F87864B6B105F1E5
:1024E0001001242005F04CF9002101704170817029
:1024F000D4F87814A86443463A4602F0D3F910B1F0
:102500000120BDE8F081A864BDE8F081D4F87C34F6
:10251000C3B105F11001382005F032F980F83160BF
:1025200080F8326080F83360D4F87C14E864434665
:102530003A4600F037FD0028E2D1E864BDE8F081BA
:10254000002070470020BDE8F08100BF70B5002674
:102550000546C0F88014C0F8786401464FF48F60D7
:1025600005F00EF90446466001F004FDC4F810625F
:1025700004F5037001F0FEFC84F83C6484F8716497
:1025800084F8726484F87364D5F88064C5F87C4478
:1025900031462046012201F0B5FD68B104F5886698
:1025A000304600F045F82146304600F0ADF850B115
:1025B0001E4B01201D6070BD02463146204601F0D1
:1025C000A1FD0028EAD10026C5F87C6429464FF415
:1025D0008C6005F0D5F8C67180F83C6480F83D64E5
:1025E00080F83E64D5F88064C5F87804012231464D
:1025F000044603F063FB80B104F23C46304602F02F
:10260000C3F82146304602F055F90028D0D1074BD7
:1026100000201860C5F8780470BD02463146204697
:1026200003F04CFB0028E7D1F1E700BF9820FF1F23
:1026300010B5044600F0D6FE002384F8313084F84B
:10264000333010BDF0B50878202803D111F8010F00
:102650002028FBD051600878002851D02F282BD09B
:102660005C2820D0A0F12204E4B21D2C1DD9DFF893
:1026700094E04E1C00247C28A0F12005374612D09F
:102680005E2D10D816F8010BA0F12205EDB2013431
:1026900078B32F2811D05C282EFA05F703D01D2D12
:1026A000E9D8FD07E7D50020F0BD164D25FA04F462
:1026B000E607DCD50020F0BD00240F193E46254674
:1026C0002F2002E016F8010F01352028FAD02F281C
:1026D000F8D02944196044B1394611F8013D2E2B38
:1026E00001D0202B08D1013CF7D1204610600120F9
:1026F000F0BD1F600F19EFE7FF2CF6DD0020F0BDE5
:102700001960F3E70101003590F831200AB100208B
:10271000704738B504460D46114638220AF028FEA7
:102720004023012084F8313084F83300256238BD1D
:102730002DE9F04700F1240307468A4693E8070095
:1027400084B097F831300DF1040888E80700002BB9
:102750003AD097F83030012B36D94FF001090024D8
:10276000B9F1010F14BF202240224146386A01F01E
:10277000C5FD012828D100224146386A01F0A4FD98
:1027800010B30378C12B1FD1054604F10F0635F8AD
:10279000021FA9B1DAF800307E2994BFC9B23F21E7
:1027A0001B68013450469847A642F0D109F101094F
:1027B00097F830305FFA89F94B45D1D8304600E0C0
:1027C000204604B0BDE8F087002004B0BDE8F087E3
:1027D0002DE9F04790F833300446D80782B040F135
:1027E000B2800D465906164640F1B880D4E9000182
:1027F000D4E9042310EB060841F100094B4508BF5A
:102800004245C0F0B180002E00F0B080A146F9E84A
:102810000623B04655E0134371D194F831305B067E
:102820004CBFD0F82C14E169A16190F83DE4D0F8D8
:10283000243402397F0A01FA0EF2F9181144BAF170
:10284000000F48D1B8F5007F45D3D0F81432994233
:1028500041D0B8F5806F59D394F8332052064FEA2F
:10286000582A07D4012202FA0EFEC7EB0E07BA451A
:1028700028BFBA4699424FEA4A270CD30AEB010215
:102880009A4208D900F50370019101F0D9FB0028A4
:1028900059D0206A0199D0F8380402685346D2F81A
:1028A0000CA02A46D04700284DD038460021D4E954
:1028B000002312184B41B8EB07083D44C4E900233C
:1028C00054D0206AD0F830741740C7F3080A002F9C
:1028D000A1D0A169A9E700F50370002201F050FB27
:1028E00088B3CAF50077474528BF474600EB0A0181
:1028F0003A46284606F046FF38460021D7E794F8C6
:10290000333059060FD5A16901318DE7D0F838046D
:1029100003682A469B689847A8B14FF400700021CD
:102920004FF40077C3E74A46A16901F013FD40B2B6
:10293000002808DB02D0206AA16976E794F83130DC
:1029400013F0500F14D194F832304FF0FF3043F0B1
:10295000020384F8323002B0BDE8F08794F83130D9
:102960001A073FF543AF4EE7161A4CE74FF0000841
:10297000C8EB060002B0BDE8F08700BFF0B583B039
:1029800001220DF107010446D0E900678569FFF7D0
:102990001FFF012808BF9DF80700A56118BF4FF071
:1029A000FF30C4E9006703B0F0BD00BF2DE9F04F70
:1029B00090F831E0856983B00446BEF1000F1BD06A
:1029C000D0E90001994208BF904216461F463BD00D
:1029D00056EA070307D10023A3610120C4E9006779
:1029E00003B0BDE8F08F1EF0080F0AD0D4E904232D
:1029F000BB4208BFB24204D2A561002003B0BDE8CB
:102A0000F08F236A019393F83DC494F833A00CF13E
:102A1000090C5FFA8CFC16F1FF3247F1FF33CCF161
:102A2000200803FA08FB22FA0CF242EA0B02ACF18E
:102A3000200B23FA0BF31AF0400F42EA030205D0F1
:102A4000E3691A44A261C8E70120D7E710F1FF3912
:102A500041F1FF3A29FA0CFC0AFA08F84CEA080C92
:102A60002AFA0BFB4CEA0B0C6245534617D21EF0B8
:102A7000400F16BF019BE369D3F82C34A361904645
:102A800004F118094A46B8F1000FA6D0A169206ADE
:102A900001F060FC08F1FF380028F3D1ACE750EA00
:102AA0000103E4D0CCEB0202E9E700BF2DE9F04FCF
:102AB00093B090F8314000920D469DF8701002914D
:102AC00006462CB99A4695F8313013F0500F07D1CD
:102AD000002086F8310086F8330013B0BDE8F08F8F
:102AE000009B002B00F0118122465146009801F016
:102AF0002BFD95F831300490002B40F0FB80B84A54
:102B00000AF10E0382FB03121A44DB17C3EBE20344
:102B1000029ADBB202F00702059302334FF000097C
:102B20005FFA83FB42F0400301924C464F46039309
:102B300020220AA92846FFF74BFE00283DD0202876
:102B4000C6D19DF828301A0663D4002C5ED12A68BD
:102B5000A9690791203A08920134E4B26BB3C02B03
:102B600000F09E80C12B5FD0852BE1D1382200215F
:102B700030460AF0FDFB9DF82C309DF8292086F8A0
:102B8000302003F03702DB0658BF42F0080286F817
:102B900031202B68296AAA697262203B3162B362D4
:102BA00095F83330C3F3801386F82C3020220AA91D
:102BB0002846FFF70DFE0028C1D1029B03F0420317
:102BC000422B85D1009B002B82D05C450DD39EE02B
:102BD00020287FF47DAF24B92A68A9690791203A9B
:102BE0000892DCB2A34540F2928020220AA928462E
:102BF000FFF7EEFD631C0028EAD12846AF6900F01C
:102C000021FC00283FF464AFAF61EBE75C45A5D23F
:102C1000A2E7B9F1000FA2D15C4538BF0024852B93
:102C200086D14FF00109A1E7C7EB0A085FFA88F8DF
:102C3000B8F10F0F28BF4FF00F0843463A460099EE
:102C40000AA801F09FFC00284BD04744FFB2BA45C8
:102C50007FF46EAF029B18063FF53AAF029B13F06C
:102C6000320F05D096F8313013F0110F7FF430AFEA
:102C7000029AD106134640F1B5809A077FF528AF36
:102C8000002200233046FFF791FE00283FF420AFDA
:102C9000304600F04DFC00283FF41AAF01201CE73D
:102CA0009DF829309DF8042086F833209F0744BF03
:102CB0009DF80C3086F83330DDE90C23DDE9100196
:102CC000C6E904230F9BF361009BC6E90201002BB8
:102CD000C0D09DF82B30534505D04FF000094F462A
:102CE00026E7814624E7BDF82C30049A9342F4D1BC
:102CF00000271DE7D5E9002313433FF400AF00226E
:102D00000023C5E90023AC61F9E60493F7E695F8E2
:102D100033303822C3F380130021304607AC8DF8DE
:102D200024300AF025FB2B6A029D336294E80700E9
:102D300005F00707082567F07D0986F831500AF18C
:102D40001E0706F1240585E80700FFB2009DCDF8B7
:102D500000904FF0000818460122214601F0B4FA15
:102D6000814600283FF4B4AE90F90020002AFFF617
:102D7000AFAE202200210AF0FBFAB8F1000F53D0C9
:102D8000B8F1010F3FD0C8EB08120F2FA2F11E02BD
:102D90004FF0C101384628BF0F20D2B289F8001089
:102DA00058B109F1020300B203EB40002A4412F8C3
:102DB000011B23F8021B9842F9D108F101085FFAC0
:102DC00088F8C3451BD920222146306A01F096FAC3
:102DD00001287FF47DAE0F3FFFB2306ABCE700BF31
:102DE00089888888029B9B067FF558AFD6E9042323
:102DF0003046FFF7DBFD00287FF450AF68E6304631
:102E000000F0F0FA69E69DF80030C021032289F84D
:102E1000001089F8012086F83330BDF8103089F8A9
:102E200003A0A9F80430C8E7059B5A1CD2B285213B
:102E30000B4B89F8001086F8302089F801201A68B9
:102E4000002ABAD00DF11A0106A89047BDF81A1051
:102E5000BDF81820A9F80810A9F80A20ADE700BFAE
:102E6000E420FF1F90F8313053B930B591F831406C
:102E700014F0500483B00D4604D1204603B030BD99
:102E800000207047D5E90045002504F01F042C43BD
:102E900002D0184603B030BD00921A46FFF706FE76
:102EA00003B030BD2DE9F043064695B096F83140A9
:102EB000039200208DF849008DF84A008DF84B00F0
:102EC00034B9994691F8313013F0500F0D4603D1C3
:102ED000002015B0BDE8F08313782F2B144633D0B3
:102EE0004FF00108214603AB04AA3046FFF7AAFBC6
:102EF0000028EDD0039B1B78002B3AD09DF81030B2
:102F0000059ACDF8008029463046FFF7CFFD00280E
:102F1000DED0344606AF06F1300E20686168A26844
:102F2000E3683D460FC5103474452F46F5D120683F
:102F30002860304600F056FA002386F8313086F8D3
:102F40003330039C06ADCDE70134039421782F295B
:102F5000FAD0D1B1382206A800212F6A0AF008FA67
:102F60004022012306AD0E978DF849208DF84B3095
:102F7000B6E79DF81030059ACDF800902946304606
:102F8000FFF794FD15B0BDE8F083382230462C6A77
:102F90000AF0EEF940230120346286F8313086F8D9
:102FA000330096E721B1DBB201F58861FFF77ABF04
:102FB0000846704770B586B006AD002204694369C3
:102FC00005F8042D0E4619460A220023204609F072
:102FD00075FC303400EB8003A4EB430450EA01029B
:102FE00005F8014D0B460446EDD102AB9D4206D9D2
:102FF0002946202201F8012D9942FBD102AD284635
:103000000AF09EFC3368024629465B6830469847C2
:1030100006B070BD034610B5006A0C46002203F1ED
:10302000240101F051F928B1C1682046BDE81040E3
:1030300004F0A2BB10BD00BF2DE9F0438FB0002407
:103040001746804600221E4600230D468DF831406B
:103050008DF832408DF8334007F00209FFF7A6FCE7
:103060000122414668465FFA89F9FFF7FBFE002816
:1030700040D09DF83130980701D5F90730D50024AC
:1030800046B12B68013420211B682846E4B29847DA
:10309000A642F6D1B9F1000F3FD17A0733D42946C1
:1030A0006846FFF745FB9DF8313013F0500F24D1EF
:1030B0002B680D211B68284698472B680A211B683E
:1030C000284698473B070BD59DF8313013F0500F39
:1030D00006D0B31CDBB23A4629466846FFF7ACFF80
:1030E0006846FFF7A5FA012241466846FFF7BAFE97
:1030F0000028BED10FB0BDE8F0832B682F211B68DC
:1031000028469847D4E729466846FFF753FF2B68BF
:1031100020211B6828469847C1E729466846FFF7E3
:1031200079FF2B6820211B6828469847B5E700BF28
:103130008169F8B50446006A01B10131012200F04D
:1031400087FF012806462FD9012301461A46206A27
:1031500001F048F8074638B3A06994F8333030B32B
:103160005A0613D5421C964225D023F0400284F81B
:103170003320E36905E0206A01F0F6F8A0B1A06908
:103180002B465D1C834219462A46F4D34FF0FF328A
:103190003146206A01F0E8F830B1A16959B13246F0
:1031A000206A01F0E1F830B900273846F8BD43F055
:1031B000400384F83330A6613846F8BD2DE9F0436A
:1031C00000F12403054693E8070085B095F83330F5
:1031D00001AE86E807009A071BD5E969E9B9002422
:1031E00001223146286A01F06FF80134E4B280B15F
:1031F000037803F07F03037095F83030A34231D396
:10320000002CEDD020223146286A01F077F8012801
:10321000E6D0002005B0BDE8F0835B06286A1CD527
:10322000D5E9022390F83D440934E4B212F1FF38A5
:1032300043F1FF39C4F1200709FA07F728FA04F22D
:10324000A4F1200329FA03F33A431A43013200237D
:1032500000F0C8FF0028C2D1DBE701F097F8002892
:10326000BDD1D6E72C6A0023204685F8313085F899
:10327000333000F0E5FE0028CBD004F5037000F0F9
:10328000DFFE0028C5D0D4F8380403685B6998478E
:10329000C0E700BF2DE9F04F00F1240A06469AE886
:1032A000070087B00DF10C0888E807000027DFF859
:1032B00030B1B9463C4600224146306A01F004F87C
:1032C000FBB2054630B10078C0284DD0C1282BD0C4
:1032D000852809D096F8323043F0010386F8323061
:1032E000002007B0BDE8F08F96F83110DBF8002021
:1032F00095F8019001F03701A980AAB1306A0193D5
:1033000090F80C1241F0010180F80C120DF10A0145
:1033100002A89047BDF80A10BDF808202878019B44
:10332000A9812982EA816A82002115F801E0E2037D
:1033300042EA54041EFA84F40129A4B201F1010105
:103340000DD01F29F1D999452CD020224146306A51
:1033500000F0D4FF012807F10107ACD0BAE78528B7
:103360000CBF04210221E0E796F8332012F0400F51
:103370006A7814BF42F0020222F002026A70D6E9B3
:103380000401C5E90201D6E90201F2696A61C5E9F1
:103390000601316A91F80C2242F0010281F80C22F8
:1033A0002878C1E751460122306A00F08DFF0028DD
:1033B00090D0356A4480284600F042FE002889D02B
:1033C00005F5037000F03CFE002883D0D5F83804E2
:1033D00003685B69984700283FF47CAF81E700BF32
:1033E000E420FF1F90F8312092B138B590F83320D7
:1033F00011060FD4056A0446284600F021FE88B95C
:1034000094F8323043F0010384F83230002038BDA4
:103410000120704702F07F0280F83320BDE8384079
:10342000FFF738BF05F5037000F00AFE0028E7D06B
:10343000D5F8380403685B6998470028E0D001207C
:1034400038BD00BF2DE9F04190F8313059060446EF
:1034500063D48068236AD3F834341844B0F1806FA1
:1034600002D30020BDE8F0812046FFF761FE00286E
:10347000F7D0266A96F80C32DA0706F5037550D4B1
:10348000284606F5067600F075FD4FF4007200211F
:10349000304609F06DFF226AA36992F83D04D2F824
:1034A0002414A3F10208012708FA00F817FA00F320
:1034B000884418BF002511D0D2F83804036808EBFF
:1034C00005019B693246984701350028C9D0226A18
:1034D00092F83D3407FA03F3AB42EDD894F831305B
:1034E0005B0615D494F8333063F07F0384F83330EF
:1034F000D2F83464D4E90223D4E9040192194FF0DC
:1035000000077B4180197941C4E90223C4E9040121
:103510002046BDE8F041FFF765BF006A00F0B0FF4C
:1035200098E7284600F08CFD0028A9D199E700BF54
:1035300090F833309A0718D5F0B5C56983B08DB1CE
:1035400003F04003044603F0FF0083B9A16900299A
:1035500041D10195E1612946206A00F017FF30BB97
:10356000002000E0012003B0F0BD00207047206A79
:10357000A16990F83D34D4E902670933DBB216F152
:10358000FF36C3F1200E47F1FF3726FA03F207FAA0
:103590000EFE203B42EA0E0227FA03F31A430132E1
:1035A000B1B1013D6D1A01312A4401910ABBD4E940
:1035B000000194F8333063F07F03C4E90201C4E9E9
:1035C000040184F833302046FFF70CFF03B0F0BD50
:1035D0000195E161EAE702AA42F8040D206A00F0D1
:1035E000B9FE40B20028BBDB0AD1019D002DDED020
:1035F000B1E70023019900F0F5FD0028D7D1AFE72E
:103600004FF0FF32A169206A00F0AEFE0028ECD135
:10361000A6E700BF2DE9F04F90F8333085B09C0746
:10362000064601920AD496F8323043F0010386F838
:1036300032304FF0FF3005B0BDE8F08F5A078A46B0
:1036400000F11281019B002B00F022813146F1E84C
:103650000623DDF8048003919346306AB569D0F8FB
:1036600030445B461C40C4F308094CBB002D00F0FD
:10367000BE8096F833305B0640F1DD80D6E9022348
:1036800090F83D740937FFB212F1FF3243F1FF3376
:10369000C7F1200E03FA0EFE22FA07F1203F23FAAB
:1036A00007F741EA0E01F36939430B449D42C0F02C
:1036B000B5803046FFF73CFD0028B4D0306AB569CC
:1036C000D0F8247490F83DE4640A023DE11905FA4B
:1036D0000EF52944B9F1000F40F08280B8F5007F63
:1036E00057D2D6E90423D6E90045B8F5007F47460E
:1036F00028BF4FF400779D4208BF944234BF012297
:10370000032200F5037000F03BFC00288BD04844F6
:103710003A465146B94406F035F8B9F5007F00F055
:10372000928038460021D6E90023D6E9044512EB01
:10373000000B43EB010C65455A46634608BF5C45E8
:10374000BA44C7EB0808C6E9002309D296F833103B
:1037500064465B46C6E9043461F07F0186F83310A5
:10376000B8F1000F7FF479AF5A466346D6E90201FB
:10377000994208BF90427FD3474B1B68002B00F053
:10378000858096F83330019863F07F0386F83330F4
:1037900051E7B8F5806F2ED3012303FA0EFEC4EB78
:1037A0000E0ED0F814324FEA5824744528BF7446E0
:1037B00099424FEA442709D362189A4206D900F584
:1037C0000370029100F0D6FB306A0299D0F83804F9
:1037D000056823465246EC69A0470028A1D122E79C
:1037E000C9F50077474528BF4746012289E7F569B3
:1037F000BDB1B56164E7D0F8143299422CD0D0F84D
:103800003804036852469B69984700283FF40BAF81
:103810004FF4007000214FF4007784E70135B56163
:103820004EE73046FFF784FC00283FF4FCAEB56954
:10383000F561306A44E72946039A00F08BFD0028C1
:103840007FF43CAF35E7306A00F5037000F0F8FB19
:1038500000287FF466AFE6E600F50370029100F001
:1038600089FB306A0299CAE7D0E90423FFF79EF882
:1038700000283FF4D8AEE5E696F83310019861F0E1
:103880007F01C6E9022386F83310D4E60198D2E618
:10389000D6E900236AE700BFE420FF1F70B50446A5
:1038A00008460D460AF04CF8236802462946204691
:1038B0005B68BDE8704018478368C3F308038BB1A9
:1038C00000210269D1540133B3F5007FF9D1C368F7
:1038D0000269016810B41C68A469184623465DF8A3
:1038E000044B18470120704782680346C2F3080260
:1038F000006930B481545D68986840F2FF1401EBB0
:1039000075010130A2425960986002D0012030BC9C
:103910007047D868196804681A69A4694D1C1D604D
:10392000234630BC184700BF38B50C46C9B205461F
:10393000FFF7DAFF00B938BD210A2846BDE8384054
:10394000FFF7D2BF2DE9F84300268046016086606C
:103950004660B0B200F0A0FDB042814605460DD0F1
:1039600001464046FFF7E0FFA0B30136B6F5803FC1
:10397000EFD34046BDE8F843FFF79EBF741CB4F593
:10398000803F14D1C6F58037B7F5007F4FF48034FF
:103990001AD2A9B24046FFF7C7FF0135D0B1A54200
:1039A000F7D32E46E2E70134B4F5803FEAD0A0B267
:1039B00000F072FDA042F6D0A71BB7F5007F03D23E
:1039C000A642E6D34E46C4E74FF6FF714046FFF7E6
:1039D000ABFF10B90020BDE8F883B9B24046FFF74D
:1039E000A3FF0028F6D02646C0E700BF2DE9F04F20
:1039F00016460A68C16006618DB0814612690846A4
:103A00000F4698469047B0F5801F15D2B8F1000FC9
:103A10000DD0D8F80030AB495B6815224046984776
:103A2000D8F80030A8495B6840460F229847002428
:103A300020460DB0BDE8F08F0222012301E0904244
:103A40004CD90133DBB2202B4FEA4202F7D1A3F16C
:103A50000B0252100121D4B291400594039101331D
:103A600001245B1004FA03F3049303FA04FA9B00A5
:103A70000193019BC01A20FA02F303FA02F4002119
:103A80004FF40072304602934FF0010B09F070FCC6
:103A90000025FF230721FE2286F8C21186F8C321E4
:103AA00086F8BFB186F8C0B186F8C15186F8C43136
:103AB00086F8C5313B68C6F8C6A14AF6552254447B
:103AC0009B69C6F8CA41A6F8FE2129463246384607
:103AD0009847B0B9B8F1000FA2D1A8E71C2BB6D80F
:103AE00008221A2B059200F2B0814FF40043019393
:103AF0004FF4807303934FF400534FF4804A0493C0
:103B0000B7E729464FF40072304609F031FCEB2349
:103B100033707620902145226C4B7070B170F2703A
:103B20001B68B464049C0B9334657465029CDDF8D7
:103B30002CE0F46558209DF814407564462141221C
:103B40005423F564A6F86A5086F86D4086F87050E4
:103B50002024C6F864E030714FF0040C4FF48075F7
:103B60004FF0090E80207171B271F371C6F840A058
:103B7000C6F858A086F86EB034727472B472C6F883
:103B800060C0A6F8685006F1770386F86CE006F28C
:103B9000FD1186F86F00F42203F8012F9942FBD142
:103BA0004AF655220023A6F8FE211C46012501E015
:103BB00001330135A3F16A02012A04D9702BF7D031
:103BC000F25C02EB7404B5F5007FF1D13B6832463C
:103BD0009B6951463846984700283FF47BAF3B68C5
:103BE00032469B690AF10C013846984700283FF499
:103BF00071AF2A460021304609F0BAFB4AF6552338
:103C0000A6F8FE310AF109030593731ECDF824903E
:103C10000AF1010B069306F2FF15CDF820A0994694
:103C2000CA464B4613F8012F9D4202EB7404F9D1AA
:103C30003B6832469B6959463846984700283FF40E
:103C400049AF3B6832469B690BF10C0138469847F7
:103C500000283FF43FAF059B0BF1010B5B45DFD123
:103C6000DDF82490CDF81CA04FF40072DDF820A000
:103C70000021304609F07CFBCDF82090DDF814904F
:103C80000AF10B0B069B13F8012F9D4202EB740403
:103C9000F9D13B6832469B69494638469847002827
:103CA0003FF418AF3B6832469B6909F10C01384676
:103CB000984700283FF40EAF09F101035B4507D098
:103CC0009946DFE71412010074120100E086FF1F1D
:103CD000CDF81490DDF82090331F06F5FE7243F8FE
:103CE000044F9342FBD13B6859469B6932463846A4
:103CF000984700283FF4EEAE3B6805999B690D316B
:103D000032463846984700283FF4E4AEB8F1000F39
:103D100006D0D8F8003089495B680C2240469847A5
:103D2000029B4FF40072002130469D0009F020FBF9
:103D30003346F82203F8132B049A0799524405F2EC
:103D4000072514466A0A1046FF2201F8012F8B420C
:103D5000FBD14FF0000B2346CDF810905C46AD0B25
:103D600081469B4604E0002C68D00134A1451CD05C
:103D7000B4FBF5F305FB13434BB9012270494046F0
:103D8000B8F1000F03D0D8F800305B6898473B6863
:103D900032469B6904EB0B01384698470028E2D174
:103DA000B8F1000F7FF43CAE41E6DDF81090B8F1B9
:103DB000000F30D0D8F8003062495B6802224046DC
:103DC0009847029C039B0734E40804F2FF156D0A30
:103DD0009D423FF625AE4FF400720021304609F0B7
:103DE000C7FA072333704FF0000B06E0BBF1000F5A
:103DF0007ED00BF1010B5D452BD03B6801999B698F
:103E000032465944384698470028EFD1B8F1000FA0
:103E10007FF406AE0BE6029C039B0734E40804F231
:103E2000FF156D0A9D423FF602AE4FF40072414607
:103E3000304609F09DFA07233370D4E74FF400723F
:103E40002146304609F094FA8FE74FF480710391D0
:103E500005E6B8F1000F5ED03B494046FFF71EFD76
:103E6000039B4FEA4A0A0AEB03014846FFF76AFD43
:103E700000283FF4D5ADD9F80830039AB3EB422FB0
:103E80003FF6CEAD31494046FFF708FD4FF40072D2
:103E90000021304609F06CFA03238222812002219E
:103EA000337086F82000716386F84020D9F804202A
:103EB00072647365039AD9F80830B3650025B4635A
:103EC0000AEB420AF56504E0F5B1039B01359D421A
:103ED00011D03B6832469B690AEB0501384698478A
:103EE00004460028F0D1B8F1000F7FF499AD9EE5AB
:103EF00086F800B07DE7B8F1000F3FF499AD404679
:103F00001349FFF7CBFC93E54FF400722946304686
:103F100009F02EFAD9E7039B4FEA4A0A0AEB03019C
:103F20004846FFF70FFD00283FF481ADD9F808306F
:103F3000039AB3EB422F3FF67AADA7E72C120100AC
:103F4000AC0E0100681601003C1201005412010081
:103F50006412010010B500F10C0204464068A1682B
:103F600003689B69984718B1237823F001032370F5
:103F700010BD00BF00224FF0FF3302708360704716
:103F8000F8B54568FDB183688B42044617460E4676
:103F90000ED00378DA0712D4BB0716D504F10C054E
:103FA00007F001020023134323702846A660F8BDE2
:103FB00010F90C3B07F0010213432370F8BDFFF723
:103FC000C9FF0028E8D10020F8BD6068036804F14B
:103FD0000C059B682A46314698470028E0D1F2E755
:103FE00038B50C46D0F81C14154601EBD41100F579
:103FF00003700022FFF7C4FF40B1A400C4F308041B
:1040000003595A1C04D02B60012038BDFF2038BD55
:10401000002038BD38B50C46D0F81C14154601EB0D
:10402000D41100F503700122FFF7AAFF034628B15F
:10403000A400C4F3080401201D5138BD38BD00BFE1
:104040000378DB0701D401207047FFF783BF00BF6F
:104050002DE9F84F804691468B46002944D08F1EAB
:10406000D8F828349F423BD207F00705012303FA12
:1040700005F5EDB2C7F3C80A3E463C46D8F824140D
:10408000002201EB14314046FFF77AFFC0B110F86F
:104090000A100AE04A452AD0A74210D0D8F82824AE
:1040A000944217D213F0FF050CD001340D424FEAB1
:1040B0004503A4EB0602EDD0A7422646EED101202F
:1040C000BDE8F88F0AF1010ABAF5007F4FF001054B
:1040D000DDD101E0002634464FF0000A0125CDE78E
:1040E0000027BA460125C7E7D0F81874B8E7BBF136
:1040F000000F04D1B9F1010F08BFC8F81864B01C53
:10410000BDE8F88FF8B5044600234FF0FF3600F500
:104110000377C0F838144160C0F8101215463846CD
:1041200084F83C34237084F80C32A660C4F814621E
:104130001A461946FFF724FF042D0CD8064650B145
:104140005DB905222649F01C09F068FC18B996F8FB
:104150006C30092B19D00020F8BD6B1E00EB031347
:1041600093F8BE2112F07F02F5D193F8C231002BF3
:10417000F1D000EB05153846D5F8B6512946FFF7C2
:10418000FFFE06460028DCD1E5E7336D2B44C4F87A
:104190001C34736DC4F82034B36D1D44C4F824542A
:1041A000F36DC4F82834336EC4F82C3496F86D30AF
:1041B00084F83D340125093305FA03F35A1EC4F887
:1041C00018040146C4F83434C4F8302420462A4682
:1041D000FFF73EFF402384F83C342846F8BD00BF7B
:1041E000841201002DE9F04702398046D0F82804F6
:1041F00015468A18824238D89A46D8F81834BAF147
:10420000000F35D1994238BFC8F8181401F00704DF
:104210000122D8F8243402FA04F4E4B203EB113991
:10422000C1F3C8060122494640469144FFF7A8FE63
:10423000D8B1871900F5007017F8012B224214BF7E
:1042400001260026564582EA04024FEA44040CD0B7
:10425000013D07F8012C15D014F0FF04EED1B8424F
:1042600026464FF00104E7D1DCE70020BDE8F087E7
:104270009942CBD89A42C9D9824228BF0022C8F8B5
:104280001824C3E70120BDE8F08700BF70B582B0F5
:1042900002AE054646F8041D0024D5F828340199DD
:1042A0000133994202D9002002B070BD324628463F
:1042B000FFF796FE40B20028F5DB04F10104ECD1D3
:1042C000204602B070BD00BFF8B50E4696E8280043
:1042D000D0F83014D0F8244490F83D742940023BC3
:1042E00004EB5121BB40194400F50370FFF748FE71
:1042F00018B17368C3F308031844F8BD70B54C686F
:104300000D46A318D0F830146B6090F83D340C4083
:1043100009332244DBB222FA03F406463CB12B7A7D
:104320003BB12B6801332B60013C002CF7D10120FD
:1043300070BDD6F8283429680133994202D94FF06C
:10434000FF3070BD2A463046FFF74AFE40B20128D2
:10435000EAD070BDD0F8283401338B4201D2FF205F
:104360007047FFF73DBE00BF01290DD9D0F82834B2
:104370000133994210B403D900205DF8044B704713
:104380005DF8044BFFF746BE00207047F0B50C46C1
:1043900083B005460E46D5F8283401339C4202D935
:1043A000002003B0F0BD01AA21462846FFF718FE01
:1043B00047B2002FF4DB012CF2D9D5F828340133B1
:1043C0009C42EDD8002221462846FFF723FE002814
:1043D000E6D0019B01349C420BD1002FDBD13B4640
:1043E000A21B31462846FFF7FDFE0028D8D003B0B7
:1043F000F0BDA21B314600232846FFF7F3FE00283C
:10440000CED0019C002FCCD02646C4E72DE9F8433E
:104410000024D0F82464804600F503772546314611
:10442000002238460136FFF7ABFD30B300F1FF3E06
:10443000D8F828C41EF8010FFF2805F5805913D0BD
:1044400048B10822012318424FEA430118BF013442
:10445000013ACBB2F7D10835AC450AD94D45DED08B
:104460001EF8010FFF28EBD10835AC4504F1080414
:10447000F4D8C4EB0C00BDE8F883BDE8F88300BFB6
:1044800010B50446D0F82C14FFF700FF94F83D3423
:104490000933DBB2984010BD7E2808D8A0F1610333
:1044A000192B8CBF00232023C01A80B2704730B470
:1044B0000023234D352405E035F8221081428CBFBE
:1044C00014461346E11A012903EB5102F4D89BB2BA
:1044D0001B4935F82320904219D24B240023194D53
:1044E00005E035F8221081428CBF14461346E11ACC
:1044F000012903EB5102F4D89BB2124A35F823107C
:10450000814204BF02EB8303588830BC704701EB43
:104510008303821AD9788A42DFDA93F90230012BB9
:1045200008D023B19BB2184480B230BC70474EF221
:10453000A033F8E702F00102801A80B2E5E700BF7D
:10454000B81301008C120100C9B110B40144D303A7
:1045500043EA520310F8012BA2F16104192C9CBF0D
:10456000203AD2B212FA83F292B2D30343EA520251
:10457000814292B2EBD110465DF8044B7047104671
:10458000704700BF43B370B444887E2C1ED81344D8
:10459000CD180A44023012F8013BE4B2A3F16101E4
:1045A0001929A4F1610194BF20260026192994BF7E
:1045B000202100219B1B641ADBB2E4B29C4205D18E
:1045C000AA4206D030F8024F7E2CE4D9002070BCFD
:1045D0007047012070BC70470120704738B5044611
:1045E0000D462422002108F0C3FEA560EB79102BB4
:1045F00008D0202B04D1402301202370A07038BDA7
:10460000002038BD202301202370A07038BD00BFDA
:10461000024638B552F8105F04462946806801F01A
:104620009DFA50B155B123690135AB42A37818BF4B
:1046300003F0BF0363F07F03A37038BDA37843F09A
:104640004003F7E72DE9F041037803F020032BB98D
:1046500003F0FF0441691F4B994203D900263046FD
:10466000BDE8F0810546FFF7D3FF06460028F5D0E8
:104670002969A86801F010FA0746A868394624306D
:10468000052201F0D1F980460028E7D04FF40072EE
:10469000214608F06DFEAB681A79012A10D9012471
:1046A00003E0AB681A79A2420AD918680368E119D5
:1046B0009B69424698470134E4B20028F1D1CDE726
:1046C0009B7969694FF4007202FA03F311FA83F3DC
:1046D0006B61C4E7FFFD1F0010B5044680680A4601
:1046E0002430A16901F0A0F920B1A38803F00F03E1
:1046F00000EB431010BD00BF30B590F90230002B25
:1047000083B0044619DBA56805F1240001F0BCF96B
:1047100030B9637843F001036370002003B030BD0B
:1047200005F50C7001F0B0F90028F2D02868036894
:104730005B6998470028ECD0F0E70121FFF7CCFF38
:1047400005460028E5D00378E52BE2D023780D4A12
:104750001B0744BFE369C361236A126843831B0CD0
:10476000838252B10DF1060101A89047BDF80430D3
:10477000BDF806202B836B82EA82A37803F07F03C7
:10478000A370C0E7E420FF1F10B50378044623B9E7
:1047900000232370A370012010BDFFF7ADFF00239D
:1047A0002370A37010BD00BF38B5037805460C46D2
:1047B000B3B928460021FFF78FFFA8B1016842680E
:1047C0008368C568E56021606260A3600169426931
:1047D0008369C569E56121616261A361012038BD1A
:1047E000FFF78AFF0028E4D1002038BDF0B5064667
:1047F00093B03578019200208DF824008DF82500C3
:104800008DF826002DB91F460B7813F0700F0C465B
:1048100002D1002013B0F0BD13782F2B104617D112
:104820000130019003782F2BFAD0002B35D0A168EE
:1048300009A8FFF7D3FE0028EBD0019809AC07E0E8
:104840003046FFF759FF002301983370B37009AC6D
:1048500001AA03A900F092FB03AA21460123002824
:10486000D7D0019D2D7830467DB100F0FFFD354653
:1048700009AC0028CDD00FCD0FC40FCD0FC43378B5
:104880002A682260002BDED0DAE73B4603AA2146E5
:10489000304600F0EBFD13B0F0BDA1683046FFF7E5
:1048A0009DFEB7E719B101F23C41FFF79FBF0846F3
:1048B000704700BF03780BB100207047FFF78EBE32
:1048C0002DE9F04F8378DF0783B0054640F19080F3
:1048D0000F4601780E07914600F193808C0608D5AB
:1048E000826843691289C3EB42139BB2994528BF82
:1048F0009946B9F1000F00F0AA806B69AA68880692
:104900004E464FF0000805F1100AC3F3080B3FD5DF
:10491000116A01EB5321BBF1000F53D1B6F5007FB3
:1049200050D3D36A99424DD0B6F5806F72D32878B0
:104930008006C6F3472B06D41079C8EB0000C0B23E
:10494000834528BF834699424FEA4B240BD35B44EF
:10495000994208D202F12400019101F095F8002853
:1049600046D0AA680199106802685B46D2F80CB07C
:104970003A46D84700283BD06B69361B234427446E
:104980006B6164D02978AA688806C3F3080BBFD48A
:1049900092F8058008EA5328BBF1000F38D1B8F12E
:1049A000000F35D1002B3FD149064CBF116A296A4F
:1049B0002961104601F070F8AA6808EB0001BBF10C
:1049C000000FABD002F12400002201F02DF878B1E5
:1049D000CBF50074B44228BF344600EB0B012246ED
:1049E000384604F0CFFEC7E72B7813F0700F2FD1B5
:1049F0006B784FF0FF3043F002036B7003B0BDE8FB
:104A0000F08FC36942699B1A994528BF994670E7A0
:104A10002969CEE7106803683A469B6898470028E2
:104A2000E6D04FF40074A7E70B0705D5AB785C061A
:104A300002D529690131BBE710462969524601F0C8
:104A400031F80028D4DBCFD0AA682969B1E7002665
:104A5000C6EB090003B0BDE8F08F00BF70B582B0AF
:104A600001220DF10701044646690569FFF728FF99
:104A7000012808BF9DF80700666118BF4FF0FF309E
:104A8000256102B070BD00BF30B54369C3F3431563
:104A900083B0044605B189B901220DF10701204612
:104AA000FFF70EFF40B201280BD163691F3363612A
:104AB000A068303000EB451003B030BD20334361B7
:104AC000F6E7002003B030BD2DE9F0410378076917
:104AD0000446B3B142698A420E463AD041B92161D7
:104AE000A378666123F02003A3700120BDE8F08164
:104AF00018070AD499060BD5A3681B89B6EB431F88
:104B0000EED927610020BDE8F081E1698E42F8D836
:104B1000D4F808E09EF806500935E9B2501E751E1B
:104B2000C840CD40A84200D8B2B95B064CBFDEF801
:104B30002030236A236104F110084246002DCFD0B3
:104B40002169A06800F0AEFF002805F1FF35F4DC14
:104B5000D7E70120BDE8F0812D1AECE72DE9F041FF
:104B60000D4690460021242204461F469DF81860F9
:104B700008F0FEFBA8682B6AE36000F1300208F041
:104B80000F0302EB4312A060A4F80480D17A0B0754
:104B900011D401F017012170D37AE67013F0180FC9
:104BA00004BF41F00801217017F0320F08D02378BC
:104BB00013F0110F04D000202070A070BDE8F08128
:104BC00007F00705A570918A538BC66AA661FE0699
:104BD00043EA014106D5BA07EDD591B965F07F05E5
:104BE000A57002E02162D369E361BB0602D4012013
:104BF000BDE8F081E1692046FFF766FF0028F6D1A5
:104C0000D9E700F0E7FF0028D5D0A578E6E700BF98
:104C100003781BB90B7813F0700F01D10020704797
:104C20002DE9F0474E6916F01F0782B021D1914659
:104C30000D468046BA4601E000276E6900212846ED
:104C4000FFF722FFA8B103789BB12E2BF4D0E52B00
:104C5000F2D0C27A110710D50F2AEDD15A06ECD541
:104C600003F01F0790F80DA0E7E700F05DF982451B
:104C700005D0002002B0BDE8F087002FF5D10097E5
:104C80004B46C6F34F1229464046FFF767FFF1E750
:104C900003780BB1FFF730BD0120704783789B0785
:104CA0001AD5036AB3B110B5016982B00446F1B9EF
:104CB000019301621946A06800F08CFFA8B1A378A7
:104CC00022786169E16163F07F03A370EAB9012092
:104CD00002B010BD01207047002070476FF0704295
:104CE0002169A06800F00EFF58B90020F0E702AA81
:104CF000002342F8043D806800F0D4FE0028F4DB75
:104D0000ECD1019B002BDAD0D4E72046FFF7F4FC6E
:104D1000DEE700BF2DE9F04783789D07044607D4FE
:104D2000637843F0010363704FF0FF30BDE8F08714
:104D300088465907914600F1C2806369DA4391457C
:104D4000EED8B9F1000F00F0C1804E464FF0000AD6
:104D500030E000297BD0A27852067FD5E2699A42E2
:104D60007CD90131216100F097FEB6F5007F014644
:104D70003DD26269E369A068B6F5007F354628BF79
:104D80004FF400759A427AD30522243000F04CFE8D
:104D90000028C5D038442A4641462F4404F0F2FC8E
:104DA000B7F5007F79D06369761B2B44A844636113
:104DB00000F08C80A0682169427912EA5325C3F380
:104DC00008070CD1002FC4D000F066FE0146C7F5DD
:104DD0000075B54228BF3546A0680122D5E700F02E
:104DE0005BFE2918002FF2D1B6F5007FC1D3B6F5CE
:104DF000806FA0681DD30279C76A521BC6F3472390
:104E0000D2B2934228BF13468F424FEA432508D8B7
:104E10001F448F4205D980F824A04FF0FF32C262B0
:104E2000A068006807684246FF69B8470028BAD101
:104E300076E7C36A8B4229D00068036842469B69C3
:104E4000984700283FF46CAF4FF40075ABE7216A38
:104E500059B3216100F020FE0146C5E704F11002BC
:104E600000F020FE0028FFF65BAF05D12046FFF7DB
:104E7000CFFB00283FF454AFA0682169EAE7A3788C
:104E800013F0200F0CBF012205227EE780F824A03A
:104E90004FF0FF33C362A068CEE7A068243000F073
:104EA000F3FD00287FF47FAF3AE72046FFF7B0FB21
:104EB00000283FF435AF21692162A068CAE7C169C3
:104EC000FFF702FE00283FF42BAF36E7E2699A4273
:104ED00009D30A4B1B6873B1A37863F07F03A370F7
:104EE0004846BDE8F087A278E36162F07F03A370D3
:104EF0004846BDE8F0874846BDE8F087E420FF1F3C
:104F000004290CD90A2906D90C299ABF00EB4101C2
:104F1000C8880020704700EB41018888704700EB8B
:104F20004101B1F80100704710B4421E00F10A04BB
:104F3000002012F8011F430843EAC01051FA80F024
:104F40009442C0B2F5D15DF8044B704738B5CB68D8
:104F500073B105460C462422002108F009FA1023FB
:104F600001202B70A870A268E3682B62AA6038BD8C
:104F70008968BDE83840FFF79DBC00BF2DE9F04FC0
:104F80000378202B03D110F8013F202BFBD0886041
:104F90000378002B00F007812F2B2FD05C2B22D021
:104FA000A3F12204E4B21D2C20D9DFF818E2461C3C
:104FB00000247C2BA3F12005374614D05E2D12D897
:104FC00016F8013BA3F12205EDB20134002B00F0ED
:104FD000D3802F2B13D05C2B2EFA05F703D01D2D79
:104FE000E7D8FF07E5D50020BDE8F08F754D25FA1D
:104FF00004F4E407D9D50020BDE8F08F0024071998
:105000003E4625462F2302E016F8013F0135202BAE
:10501000FAD02F2BF8D0054415604CB13A4612F85F
:10502000013D2E2B02D0202B40F0A980013CF6D16F
:105030004FF0FF3523464B6001F1170601F10C03D9
:10504000202203F8012FB342FBD1461E002200E0CC
:10505000013216F8013F2E2BFAD0202BF8D0B2FAED
:1050600082FC6E1C4FEA5C1C0CD0475D2E2F00EBBF
:10507000050604D106E016F8017D2E2F02D015F1A9
:10508000FF35F8D2A2424FF0000980F291804E46DF
:10509000CA4607274FF0080825E02E2B47D0222BC1
:1050A0000BD07C2B09D0A3F12A0EBEF1050F48D9F5
:1050B000A3F13A0EBEF1050F58D8954239D0B74248
:1050C00029D34FF0000C5F2306F1010E01EB060B14
:1050D0005FFA8EF6062E8BF80D3000D80E73013273
:1050E000A24207DA835C202BD7D10132A2424FF0D3
:1050F000000CF7DB4B7B202B3FF475AFBCF1000FAE
:1051000047D01AEA090F18BF4FF0020981F8009042
:105110000120BDE8F08F0A2F37D0954235DB2A46B3
:105120000A2708264FF010084FF0000CD7E79542E9
:10513000DBD10A2F29D02A460A2708264FF010086B
:10514000CDE72D2BB9D1A3F1210EBEF15D0FB4D85F
:105150009542EED0B742DED3A3F1610EBEF1190F36
:1051600028D8203BDBB248EA0909ADE7A3F15B0E82
:10517000BEF1020FA1D9E6E7176007194EE7FF2C31
:105180003FF731AF651E234655E74B7B202B3FF49D
:105190002AAF0B7B0B4401207E24312208705C7304
:1051A0009A73BDE8F08F10601C464FF0FF3542E760
:1051B000CA469FE7A3F1410EBEF1190F98BF48EA16
:1051C0000A0A81E7010100352DE9F0478AB0C3786A
:1051D00000258DF804508DF805508DF80650002BF1
:1051E0004CD081460C4601A84946FFF7AFFE002887
:1051F0003ED099F80330002B3AD04FF00108B9F8AF
:105200000410C8EB0101490101A8FFF75DFC78B368
:10521000002101A8FFF738FC064648B3C37A0F2BDC
:1052200026D1037803F01F03984521D105F10D071E
:10523000AA46C5EB0A01C9B23046FFF761FED8B1F4
:1052400023687E2894BFC1B23F210AF1010A1B687E
:10525000204698475745ECD13D4633785B0612D43B
:1052600008F1010899F803305FFA88F84345C6D27F
:1052700000200AB0BDE8F0875546EEE700F088FB55
:105280000AB0BDE8F0872846F3E700BF2DE9F041FA
:1052900082788AB0002392078DF804308DF80530AB
:1052A0008DF8063022D5016A054621BB012128462A
:1052B000FFF712FAD0B1411E00F10A07002462087C
:1052C00011F8016F42EAC41356FA83F38F42DCB23D
:1052D000F5D14FF0E50880F80080AE68002306F1B4
:1052E00024002B70AB7000F0CFFB50B90026304685
:1052F0000AB0BDE8F081806800F06CFC0028D5D1D0
:10530000F4E706F50C7000F0BFFB0028EED0306823
:1053100003685B69984706460028E7D0EB78002BC6
:10532000E5D001A82946FFF711FE0028DED0EB7872
:10533000002BDBD001271FE001A8FFF7A5FB7B1C9A
:105340000028D3D0C27A0F2AD0D1027802F01F01F0
:105350008F42DFB2CAD1437BA342C7D180F800801D
:10536000A96891F8243043F0010381F824305306F2
:105370000CD4EB78BB42B9D3A988C91B490101A859
:10538000FFF7A2FB00210028D6D1AFE7AC6804F1FB
:10539000240000F079FB0028A8D004F50C7000F080
:1053A00073FB0028A2D0206803685B699847002837
:1053B0009CD09CE72DE9F8430F7B0E46044601F193
:1053C0000D054FF002084FF07E097068B16808EBD8
:1053D00000039BB240B1084411F8012B03EB4313C7
:1053E000534088429BB2F7D1032F28BF03273A1DB1
:1053F000D2B203F00F01B018013A0929D2B294BF1A
:105400003031373197424FEA13134173F1D3F31917
:10541000002183F80D902046FFF756FB012120461E
:10542000FFF732FB0B2203460146A8B193F800E0D8
:105430002846BEF1000F15D0DB7A1B07EED407F02B
:1054400001FF0028EAD108F101081FFA88F8B8F135
:10545000640FBAD1BDE8F8836078B0FA80F04009F3
:10546000BDE8F8830120BDE8F88300BF2DE9F04FC7
:105470000C7814F0700F8DB001D004781CB10020AE
:105480000DB0BDE8F08F1478D2F804A0A40742D183
:105490004FF001090E4693460990002130460F4611
:1054A0000793FFF711FB0BF10D03069703973C469B
:1054B000B84605970493012130467569FFF7E4FA71
:1054C000C5F34F150346002800F08C800278E52ACA
:1054D0003AD0002A38D04C4538BF00242E2A30D08C
:1054E000D97A0F293ED001F0080101F0FF0241BB3B
:1054F000B8F1000F40F0178118460B22049907F00D
:10550000A1FE0028D7D19BF80030DB0740F11F81B6
:1055100001230593CFE7B14D0AF10C04A5FB044923
:105520004FEA990909F101095FFA89F9B2E703998C
:105530000139C9B28A42039103D15A7B069991423B
:105540001BD04FF00008B6E7002C08BF2F464C4593
:105550003CBF0134E4B2002A48D0E52ABED14FF066
:105560000008A8E7B8F1000FE1D15106A3D502F079
:105570001F085A7BCDF80C800692039A013A02EB81
:10558000420502EB8505AA452A46DAD905F10D0147
:10559000CDF82080884613E0DBF80800825CBCF17F
:1055A000190F98BF2031A2F1410098BFC9B2192844
:1055B0009CBF2032D2B28A42C3D1C6452FD0724698
:1055C000511BC9B21846FFF79BFCC1B29245A1F12D
:1055D000410C02F1010E00F09F80FF28DCD94FF052
:1055E000000868E77378002B7FF449AF079B03F04E
:1055F0004203422B7FF443AF002C08BF2F464C459B
:1056000003D31DE0DCB2A1451AD900213046FFF7D3
:105610003BFA631C0028F5D173783BB12FE7DDF826
:10562000208048E7B3681B79012B09D8A14507D929
:105630003046FFF707F81034E4B20028F2D11EE735
:10564000059B33B159463046FFF7B4FE00283FF4BE
:1056500016AF79013046FFF737FA00283FF40FAF55
:1056600009F1FF3818F0FF0800F0828048F040058B
:10567000EDB24746002400213046FFF705FA002826
:105680003FF4FDAEB26892F82430B84543F0010310
:105690004FF00F0C14BF3946294682F824300BF125
:1056A0000C0E80F80BC0047301700BF1170C002373
:1056B0001EF8019F5A0842EAC31359FA83F3E645DC
:1056C000DBB2F5D101F01F010139437301EB410257
:1056D000DBF808E0448301EB8202043000230FE092
:1056E000042B1EF8021014D90A2B94BF01804180AC
:1056F0000133DBB20D2B02F1010200F1020033D0C5
:105700009245EDD814BF4FF0FF310021042B89B230
:10571000EAD820F8031CEBE70028DDF8208018BF4A
:105720004FF00008C7E6039901297FF4A8AE5C1E7C
:105730000A3314F8010F510841EAC21250FA82F2FA
:105740009C42D2B2F5D1069B93427FF498AE079B60
:105750001F063FF594AECDF80080079B09982A46B6
:105760003146FFF7FBF98BE6013F17F0FF0782D1C7
:10577000002130467569FFF787F9C5F34F150446D8
:1057800000283FF47CAE2022002107F0F1FD5B46AB
:10579000134A53F80D1F58686060216019899B7A7D
:1057A000A37221819BF80030126803F01803237361
:1057B00062B10DF12E010BA89047BDF82C30BDF859
:1057C0002E20238263822383E281E282B26892F8F0
:1057D000243043F0010382F82430BCE74FECC44E80
:1057E000E420FF1F10B588B00C466946FEF7DCFFC9
:1057F00030B12046BDF81620BDF8181001F09AFF10
:1058000008B010BD30B585B000230D46C1698DF8D4
:105810000E300DF10E0001F01FFF01ACA04288BF59
:10582000202303D900F8013DA042FBD1204608F017
:1058300087F82B68024621465B682846984705B0E2
:1058400030BD00BF2DE9F04300248BB017468046E1
:105850000D4621461E468DF804408DF805408DF812
:10586000064007F00209FFF72FF90122414601A87F
:105870005FFA89F9FFF7CCF9002840D09DF8043091
:10588000980701D5F90730D5002446B12B680134BB
:1058900020211B682846E4B29847A642F6D1B9F108
:1058A000000F3FD17A0733D4294601A8FFF78CFCBB
:1058B0009DF8043013F0700F24D12B680D211B6864
:1058C000284698472B680A211B68284698473B07BB
:1058D0000BD59DF8043013F0700F06D0B31CDBB26B
:1058E0003A46294601A8FFF7ADFF01A8FEF74CFF95
:1058F0000122414601A8FFF78BF90028BED10BB069
:10590000BDE8F0832B682F211B6828469847D4E711
:10591000294601A8FFF776FF2B6820211B6828463F
:105920009847C1E7294601A8FFF75CFF2B682021B3
:105930001B6828469847B5E7F8B50E460021FEF7E4
:10594000CBFEE8B100221146441E08274FF02E0E70
:1059500014F8013F202B0DD0082A12D0A3F14105E5
:10596000192D04D8057B2F421CBF2033DBB27354A2
:105970000131C9B201320B2AEAD10023735401204C
:10598000F8BD06F801E00131C9B223781027E5E738
:1059900003780BB90020704730B513F0600F85B065
:1059A0000C4611D02F2200238DF800208DF80130F5
:1059B0006D46284607F0C4FF2368024629465B6807
:1059C0002046984705B030BD69466D46FFF7B4FFE5
:1059D0000028EED1002005B030BD00BFF8B5436807
:1059E000816800F10C0604461868036832469B691A
:1059F000984740B123789A07054607D423F001035E
:105A000023702846F8BD00252846F8BD6368A168C4
:105A100018681F690368324639449B699847002813
:105A2000F1D02378EAE700BFF8B583688B420646D9
:105A300014460FD00378DA070F4612D4630716D541
:105A400006F10C05002304F003041C4334702846BF
:105A5000B760F8BD10F90C3B04F003041C4334702C
:105A6000F8BDFFF7BBFF0028E8D10020F8BD736840
:105A70001868036806F10C059B682A463946984762
:105A80000028DFD1F1E700BF0378DB0701D4012054
:105A90007047FFF7A3BF00BF83794069023999407F
:105AA0000844704770B5C379202B04460D4616464E
:105AB00018D0102B13D18369C1F307211944022296
:105AC00000F50C70FFF7B0FF48B1EDB230F81530BB
:105AD000E26993429ABF01203360002070BD4FF00D
