:1000000000000320D1010000EDA00000A5A0000029
:10001000A5A00000A5A00000A5A00000A5A00000CC
:10002000A5A00000A5A00000A5A00000EDA0000074
:10003000EDA00000A5A00000D5B40000D9B50000D7
:10004000EDA00000EDA00000EDA00000EDA000007C
:10005000EDA00000EDA00000EDA00000EDA000006C
:10006000EDA00000EDA00000EDA00000EDA000005C
:10007000EDA00000EDA00000EDA00000EDA000004C
:10008000EDA00000EDA00000EDA00000EDA000003C
:10009000EDA00000EDA00000EDA00000EDA000002C
:1000A000EDA00000EDA00000EDA00000EDA000001C
:1000B000EDA00000EDA00000EDA000005DBE00007E
:1000C000EDA0000089BF0000EDA00000B5C0000059
:1000D000EDA00000ADC10000EDA00000EDA000000B
:1000E000EDA00000EDA00000EDA00000EDA00000DC
:1000F000EDA00000EDA00000EDA00000EDA00000CC
:10010000EDA00000EDA00000EDA00000EDA00000BB
:10011000EDA0000089A70000EDA00000EDA0000008
:10012000EDA00000EDA00000EDA00000EDA000009B
:10013000EDA00000EDA00000EDA00000EDA000008B
:10014000EDA00000EDA00000A5C20000EDA00000A1
:10015000EDA00000EDA00000EDA00000EDA000006B
:10016000EDA00000EDA00000EDA00000259700002C
:100170005597000031970000519700004D970000FF
:100180003D970000E9720000EDA00000EDA0000026
:10019000EDA00000EDA000009DC30000EDA0000058
:1001A000EDA00000EDA00000EDA00000EDA000001B
:1001B000EDA00000EDA00000599700008997000015
:1001C00065970000859700008197000071970000F7
:1001D0005C4B4CF2205210B51A804DF628121A8052
:1001E00000BF00BF09F086FF574B4FF030621A6026
:1001F000564A9A60564ADA60564B4FF470021A60BB
:10020000554B564A1A60564A136813F4807304D14A
:1002100054490B604FF4A8531360534B1A781107DD
:1002200003D51A7842F008021A70504B5049AA229E
:100230001A70504A504B8B4204D252F8040F43F8C4
:10024000040BF8E74D4B4E4900228B4202D243F893
:10025000042BFAE74B494C4A002352F8230041F89B
:1002600023000133742BF8D1484B494A802103F80D
:10027000011B9342FBD1474B424A1A60464B8A22EC
:100280001A70A3F5805324225A70A0221A709A790A
:100290009207FCD59A79D406FCD4404A937903F0AE
:1002A0000C03082BFAD13E4B60221A7002331A78E5
:1002B000802AFCD1394B01221A715D225A719A7938
:1002C0009006FCD59979354A4906FBD5354B364918
:1002D00019600021596020231370937903F00C03F7
:1002E0000C2BFAD1314B324A1A60324B324A1A6027
:1002F00000225A60072243F8042C304AC3F80C2D20
:1003000062B60AF0D3F8174B1B68DA0705D52C48FC
:100310000AF02AF82B4B2C4A1A602C4B1B785B06F0
:1003200009D5284C284B22689A4204D124480AF067
:100330001BF8002323600CF03FFF09F0E1FE0BF0F7
:1003400065FCFEE70E20054030800440823F04003B
:100350000100002B88ED00E0002008E0030000858C
:1003600010D0034014D0034002D0074000E0074003
:100370000015FF1FF02701003007FF1F0015FF1FAA
:10038000708BFF1F0002FF1F0000000000E400E070
:1003900064E400E008ED00E0005006400040064044
:1003A00001E007404480044000000602048004404D
:1003B000C010070014E000E01FBF02000000202072
:1003C000B48BAB5C1CE00340A5C3945A00F007401B
:1003D000FFFFFFFFFFFFFFFFFFFFFFFFFFFFFFFF2D
:1003E000FFFFFFFFFFFFFFFFFFFFFFFFFFFFFFFF1D
:1003F000FFFFFFFFFFFFFFFFFFFFFFFFFFFFFFFF0D
:10040000FFFFFFFFFFFFFFFFFFFFFFFFDEF9FFFF23
:1004100010B5054C237833B9044B13B10448AFF33E
:1004200000800123237010BD0015FF1F0000000095
:10043000EC270100084B10B51BB108490848AFF381
:1004400000800848036803B910BD074B002BFBD0A0
:10045000BDE81040184700BF000000000415FF1F52
:10046000EC2701000015FF1F00000000002070476E
:100470004FF0FF30704700BF0A2970B50C460546A3
:1004800006D06868036821461B68BDE870401847BD
:10049000406803680D211B689847F2E70020704709
:1004A000002070470120704700207047704700BF50
:1004B000704700BF704700BF0023034A19460E2053
:1004C000137009F063BF00BFE51FFF1F0123034A3C
:1004D00019460E20137009F059BF00BFE51FFF1F1A
:1004E00010B5034B0360044602F0B2FA204610BD7B
:1004F0007C130100836C13B1184604F07BBDC06C03
:1005000008B102F015BD4FF0FF30704708B509F093
:1005100057FF034B1860BDE8084009F01FBF00BF3C
:100520007C15FF1FF8B50D46064609F07DFB044615
:1005300009F06AFB074609F057FBA4F2BC739BB2B3
:100540007F2B02D8FAB20C2A22D90023338009F07B
:100550001BFB064609F028FB044609F035FBF3B205
:10056000172B12D8E3B23B2B0FD8C3B23B2B0CD8BE
:10057000F302640103F4FF2304F4FF542343C0F3A4
:10058000460003439BB22B80F8BD00232B80F8BDAF
:10059000C0B21F28D9D87F0107F4FF57384340EA7B
:1005A00043239BB2D2E700BF00B5836C83B063B135
:1005B000184601220DF1070104F04EFC01280CD170
:1005C0009DF8070003B05DF804FBC06C28B1012260
:1005D0000DF1070102F0D6FBF0E74FF0FF30F1E735
:1005E00000B5024685B052F8101BC37B0092084844
:1005F000012208F0C1F9074B074A196803911368F3
:100600000649039808600133136005B05DF804FBE8
:100610006415FF1F0087FF1FF815FF1F0C16FF1F33
:1006200000B5014683B0084808F060FE074B084A51
:100630001968019113680749019808600133136034
:1006400003B05DF804FB00BF0821FF1F0087FF1FF8
:10065000F015FF1F0416FF1F00B5014683B00848C0
:1006600008F044FE074B084A1968019113680749CE
:10067000019808600133136003B05DF804FB00BF0C
:10068000F053FF1F0087FF1FF415FF1F0816FF1F01
:10069000836C13B1184604F0C7BDC06C08B103F0F9
:1006A0007BB97047826C62B1137803F0080303F0E2
:1006B000FF0003B3D3695069181A48BF6FF00040B8
:1006C0007047C16CC1B191F8313003F0080303F0F9
:1006D000FF0083B1D1E90423D1E90001101A30B43D
:1006E00063EB010100256FF000448D4208BF844296
:1006F00000D2204630BC70470846704700B5836C76
:1007000083B08DF8071043B1184601220DF107019F
:1007100004F0CCFD03B05DF804FBC06C0028F9D0F8
:1007200001220DF1070103F04FFA03B05DF804FB5D
:1007300070B5446808460D460DF0E2FB236802469A
:10074000294620465B68BDE870401847F0B5274C45
:10075000274883B021464FF4FE7209F0CFFA254BAB
:10076000C4F8FC01986C002836D021464FF4007282
:1007700004F09CFD1F48204F204E214D02F068F9E7
:10078000042208211F4809F0FBFB642009F03CFE0D
:100790000C211D480AF038FD1C480DF0B1FB014644
:1007A0001A480AF031FD1A480AF032FF19481A4A6D
:1007B000002400942346214604703C6017483460AE
:1007C0002C6008F0CFFB009423462146124A1448BF
:1007D00008F0C8FB03B0F0BDD86C0028CAD0214691
:1007E0004FF4007203F0F0F9C4E700BFD41DFF1FFF
:1007F0001016FF1FF81FFF1FD815FF1FBC1DFF1F7E
:10080000C01DFF1FE415FF1F98130100D81FFF1F15
:100810009C0AFF1F5920FF1FD886FF1F0821FF1FBA
:10082000F053FF1F70B5044608460D460DF068FBF7
:1008300023680246294620465B68BDE87040184799
:1008400038B5044608460D460DF05AFB23680246AB
:1008500029465B6820469847054620460AF0D8FEA0
:10086000284438BDF0B5334B9A6C8FB00746002A48
:1008700059D0314DD5F87844BCB1214668460024A2
:1008800001233A466E468DF800408DF801408DF800
:10089000024004F0D3FAD0B91B2128480AF0B4FC76
:1008A00027480AF0B5FE0FB0F0BDD5F87C1400293A
:1008B000F2D0684601233A466E468DF831408DF8F5
:1008C00032408DF8334002F047FE0028E4D0D5F8DE
:1008D0007844194B94B121463A460024022330460D
:1008E0008DF800408DF801408DF8024004F0A6FA22
:1008F0000028D8D0304604F095FFD4E7D3F87C1414
:100900000029D0D03A46022330468DF831408DF888
:1009100032408DF8334002F01FFE0028C3D030462D
:1009200002F026FFBFE7DB6C002BA2D1FFF70EFF22
:100930009FE700BFF81FFF1F1C16FF1FA813010031
:100940009C0AFF1F2DE9F04F454B464DA3B00026F2
:100950000D21814644481E700AF056FC43480AF0B7
:1009600057FE434B8DF83C60D3F878748DF84460A3
:100970004FF47A722096219610920E95002F53D044
:100980003946684601234A466C468DF800608DF86A
:1009900001608DF8026004F051FA002855D0354B03
:1009A00019680DF1380821B14A464046012302F08A
:1009B00063F820986FF0004A4FF0000BD8B103782D
:1009C0001A0706D440460E9502F042F823B0BDE85F
:1009D000F08FC26943699A42F4D00122214604F0A3
:1009E0003BFA01280CBF9DF80000FF200AF090FCA4
:1009F00020980028E3D121980028E3D090F83130E6
:100A00001B07DFD5D0E90423D0E90067921B63EB15
:100A100007039B4508BF924501D3002AD2D001228B
:100A2000214602F0AFF9DCE7D3F87C1469B16846DF
:100A300001234A466C468DF831708DF832708DF87E
:100A4000337002F089FD0028A9D11B210A480AF061
:100A5000DBFB06480AF0DCFD0DF13808B2E700BF09
:100A6000D415FF1F7C130100C41301009C0AFF1F53
:100A70001C16FF1FB820FF1FA813010010B5044665
:100A800014F8013B184633B12E2BF9D00CF0BCFB07
:100A90000028F5D110BD012010BD00BF84B030B5D5
:100AA00093B016AC84E80F009DF870509DF8674035
:100AB00009F086FC9DF866301699009003F001035A
:100AC0002A46029301911D9B1549039405A80DF038
:100AD0008BF905A80DF014FA014605A80AF094FB5D
:100AE000ACB1651EEDB2103516AB1D440DF16704B7
:100AF00014F8012F0B4904A80DF076F904A80DF0A5
:100B0000FFF9014604A80AF07FFBAC42F0D1064889
:100B10000AF07EFD13B0BDE8304004B0704700BF5E
:100B2000D4130100F01301009C0AFF1F70B5134C91
:100B300004F59165264601210E2009F027FC32209C
:100B400009F062FC00210E2009F020FC322009F09F
:100B50005BFC4FF000010A4806F0DEFB0848C4F8D1
:100B6000845405F0FFFF0028E5D1D6F8841403482B
:100B700001F0C6FF0028DED070BD00BF1C16FF1FAD
:100B8000A41AFF1F204B99784A1CD2B23A2A9A70B5
:100B90001BD05B2A26D02F392A2984BF30229A7095
:100BA0005A783A2A16D05B2A23D0303A2A2A84BFB0
:100BB00030229A701A783A2A11D05B2A20D0303A23
:100BC0002A2A84BF30229A70704741229A705A783C
:100BD0003A2AE8D141225A701A783A2AEDD14122B4
:100BE0001A7070475A780132D2B230215A70997017
:100BF000D7E71A780132D2B230211A705970DAE789
:100C000030221A70704700BFE415FF1F10B584B082
:100C1000FFF7B8FF254B00932549264B264A274866
:100C20000DF0E2F8264B1968D9B14323234A254831
:100C300001F022FFA8B1234B234A9C6C04211180B0
:100C40002CB30021204604F00BFAE0B91F4B204AD8
:100C50001B68039303991F4B116001221A7004B0A3
:100C600010BD0E211C480AF0CFFA1C480AF0D0FC37
:100C700012480DF045F9014610480AF0C5FA174828
:100C80000AF0C6FCD7E7204604F0D4FADEE7DC6CB5
:100C9000002CDBD000220023204602F061F900285E
:100CA000D4D0204602F01EFFD0E700BFE415FF1F9E
:100CB000F81301001816FF1F3815FF1FD81FFF1F5C
:100CC000B820FF1FF81FFF1F8015FF1F0087FF1FA1
:100CD0006015FF1F5920FF1F041401009C0AFF1F0D
:100CE000F0B54D4B1B7883B0002B00F0848009F0E9
:100CF00067FB4A4ADFF86CE1494B4A4C4A4F4B4E7E
:100D0000054692E803001860DEF80000C4F8DF0131
:100D10003868474AC4F8E30130681971C4F8E7013C
:100D20000423444E44481380266008F005FB84F8F1
:100D3000EB01424808F000FB84F8EC01404807F062
:100D400077FE84F8ED013C4808F0FCFA84F8EE01E7
:100D50003A4808F0F7FA84F8EF01394807F06CFEDA
:100D6000384B84F8F00103CB4FF4FE72C4F8F10164
:100D7000C4F8F5113448214608F0C0FF334BC4F8DD
:100D8000FC01986C70B34FF40072214604F08EFAA7
:100D9000B0F5007F1CD14FF40072FF2121482C4E8A
:100DA0000CF0C6FD09F00CFB02AA401B0190337841
:100DB00032F8040D27499278A4F8F90183F0010371
:100DC0008A7005201946337009F0E0FA03B0F0BDCF
:100DD0000C2121480AF018FA20480AF019FCFFF704
:100DE000A5FED8E7D86C0028F2D04FF40072214657
:100DF00002F0EAFECCE7FFF709FF0C2118480AF0E1
:100E000003FA10480DF07CF801460E480AF0FCF990
:100E100012480AF0FDFB6AE75920FF1F3414010055
:100E2000B41DFF1FD41DFF1FBC1DFF1FC01DFF1FD2
:100E30008015FF1F43414E320821FF1FF053FF1F53
:100E40006415FF1FD81FFF1F1016FF1FF81FFF1F7D
:100E5000D41AFF1FCD1FFF1F241401009C0AFF1F7F
:100E600014140100D815FF1FF0B52E4A2E4913782F
:100E700009682E4E2E4D2F4C85B083F0010303914F
:100E80002D490398086019460620137009F07EFA70
:100E90002A4A33881278EA540133338008F024FE5A
:100EA00004AA338842F80C0D191D1068E85089B265
:100EB00003F108026068685092B22068E77BA8508E
:100EC0000C33338009F07CFA1D4A33881268D4F859
:100ED00000E0801A04A920F07F403F06074341F854
:100EE000087D1A1D0868E850103403CC92B20C3308
:100EF000AC189BB21EF0005FA8503380616006D131
:100F0000B3F5ED7F01D9FFF7EBFE05B0F0BD0D4A5B
:100F1000137883F0010319460E20137009F036FA96
:100F20003388EDE7FC15FF1F0087FF1F8015FF1FAB
:100F3000D41DFF1F481BFF1F6015FF1FB01DFF1FA3
:100F40007C15FF1FE51FFF1F30B5754B1B7895B053
:100F5000002B52D0734C744A23680193019B116893
:100F60005B1A312B00F2C080704B1B78002B2ED007
:100F700023686F4A0793079B11686A485B1A312BF5
:100F800000F2C0806B4B1B785BB123686A4A0D93FB
:100F90000D9B116863485B1A312B00F2968015B0E7
:100FA00030BD664B1B78002B6AD02368644A0F93D0
:100FB0000F9B11685B485B1AB3F5FA7FEFD3614C66
:100FC00001682378109183F00103109984E05E4B4F
:100FD0001B78002B40D023685C4A0993099B116859
:100FE00050485B1AB3F5FA7FCCD3594D01682B7882
:100FF0000A9183F001030A998BE0564B494C1B7808
:10100000B3B12368544A0393039B11685B1AB3F589
:10101000FA7FA9D3514821680378049183F0010332
:10102000049D037019460620156009F0AFF99BE78F
:1010300023684B4A0593059B11685B1AC82B93D90B
:1010400023680693069B454D13600123194606202D
:101050002B7009F09BF987E7226842490B920B9AA3
:101060000868304D121AC82A8CD92A680C920C983C
:10107000374A086019460520137009F087F981E79F
:10108000226839491192119A09682648521AB2F514
:10109000967F84D3026835491292129A0968521ACF
:1010A000B2F5967FFFF47BAF026831491392139A31
:1010B0000968521AB2F5967FFFF471AF214A1946BA
:1010C0000E20137009F062F969E71E4C016823785D
:1010D0000E910E9983F0010311600E2019462370C2
:1010E00009F054F915B030BD1C482168037802910D
:1010F00083F00103029D037019460620156009F074
:1011000045F931E7124D01682B780891089983F071
:1011100001031160052019462B7009F037F931E7FA
:10112000DC15FF1F0087FF1F6020FF1FD61FFF1F5A
:101130005C15FF1FD515FF1F5C20FF1F641DFF1FDF
:101140005815FF1FE51FFF1FD71FFF1FD81AFF1FCE
:10115000D41AFF1FDD15FF1FF01FFF1FFC15FF1F17
:10116000601DFF1F441BFF1F0416FF1F0816FF1FF3
:101170000C16FF1F2DE9F0434FF4807187B0C9486A
:10118000C94ECA4D0AF0FCFB0121272009F012F9D3
:101190000121262009F00EF90121252009F00AF984
:1011A0000021272009F0F2F80021262009F0EEF8AE
:1011B0000121252009F0EAF801210F2009F0FAF8B1
:1011C00001210F2009F0E2F80121062009F0F2F8D0
:1011D0000121052009F0EEF801210E20012409F07B
:1011E000E9F8B34B3470214606201C702C7009F0CE
:1011F000CDF83178052009F0C9F829780E2009F0DA
:10120000C5F80221142009F0D5F8AA49AA4808F027
:10121000FDFAAA49A84808F0FBFAA949A64808F02F
:10122000F9FAA849A44808F0F7FAA749A24808F033
:10123000F5FA3221A04808F0E3FA4FF4FA619E482B
:1012400008F0E2FA4FF4FA719B4808F0DBFA214605
:10125000022009F0AFF80021022009F097F81421CC
:101260009A4809F0D1FF9A480AF0D2F921469948E4
:10127000002507F079FC2146974807F075FC2B46BE
:1012800029460095954A934807F06CFE2B46934AF1
:10129000009529469048924D07F064FE21468D48FE
:1012A00007F0FAFC21468C4807F0F6FC21468948F5
:1012B00007F06EFC2146884807F06AFCAA7B894843
:1012C00023460826144303210C22AC73EE7307F067
:1012D00003FB002840F093812121834809F094FF0B
:1012E0007B480AF095F900217E4807F051F87F48C5
:1012F00008F0B4FC08F0AAFC022814BF7C487D4822
:101300001B2109F081FF72480AF082F9012008F0E0
:10131000B3FC08F089FC044608F076FC054608F0AA
:1013200063FC814608F030FC064608F03DFC0746A9
:1013300008F04AFC804609F043F86F4BCDF8009066
:101340001968CDF80C80401A2B4622466B49049050
:10135000029701966A486B4C0CF046FD68480CF009
:10136000CFFD0146664809F04FFF59480AF050F991
:1013700004F59165644B654A1A6028464FF00001F8
:1013800005F0CAFF2846C4F8845405F0EBFB00289A
:1013900000F03D812E215E4809F036FF4C480AF0EE
:1013A00037F9FFF7C3FB18215A4809F02DFFD4F88D
:1013B0007834544A002B00F04481D9690139002364
:1013C0000A2243480AF034F941480AF021F917216A
:1013D000514809F019FFD4F878044A4B002800F06E
:1013E000388104F0DFFE014600230A2238480AF063
:1013F0001FF937480AF00CF9D4F87804414B00285B
:1014000000F0188104F0CEFE41F28733984240F29A
:101410000781424D42482C601B2109F0F5FE2968E6
:1014200021B163233F4A404801F026FB08F0FCFB52
:10143000044608F0E9FB054608F0D6FB804608F0B4
:10144000A3FB064608F0B0FB074608F0BDFB224AA6
:10145000204BCDF8008043F2E421039050585958B6
:1014600004912B4622463149059002970196244863
:101470002F4D0CF0B9FC22480CF042FD20490246E9
:1014800029480AF0B1F828480AF0C2F8264801F0C5
:10149000DFFA0521274809F0B7FE0D480AF0B8F831
:1014A000172149E08815FF1FD41AFF1FE51FFF1FF2
:1014B000FC15FF1F051C00009815FF1F25190000D3
:1014C000B1040000B9040000CD0400003C14010088
:1014D0009C0AFF1F0821FF1FF053FF1FD886FF1F24
:1014E0003C15FF1F6415FF1F541401000D0500007B
:1014F00098140100B41401007C15FF1FD0140100E2
:10150000DC1AFF1F1C16FF1F0421FF1F250500000A
:10151000F41401002415010040150100B820FF1F3C
:101520008C150100A81501006420FF1FB8150100EB
:101530001816FF1FDC1501004A4809F065FE042457
:10154000204608F0D5FC0134082C05F8010BF7D132
:10155000454D2846FFF792FA08B9444B2B60444D9D
:10156000204608F0C5FC01340C2C05F8010BF7D11E
:101570003F4C2046FFF782FA08B93E4B23600C200F
:1015800008F0B6FC3C4C20700D2008F0B1FC6070F7
:101590000E2008F0ADFCA0702046FFF76FFA20B9CE
:1015A000364B1B6823801B0CA3700521344809F0BF
:1015B0002BFE34480AF02CF82B4B2F4A3249334883
:1015C0000CF012FC1721324809F01EFE2F480CF0D7
:1015D00097FC01462D4809F017FE2A480AF018F832
:1015E0002C4B0122022115201A7008F0E3FE2A4933
:1015F0000322152007B0BDE8F04308F033BE1D21DB
:10160000264809F001FE1F480AF002F86BE6D4F8FC
:101610008414204601F074FA00283FF4BBAEC2E601
:1016200031211F4809F0F0FD164809F0F1FFFFF7DE
:101630007DFAEEE6D3F87C040028F1D003F0B2F98D
:10164000E2E6D2F87C1400293FF4B9AED1F82814B0
:10165000B5E6D3F87C0418B103F0A4F90146C3E65B
:101660000146C1E6E41501001816FF1F325F5F0056
:10167000E415FF1F303030003815FF1F1C16010025
:10168000DC1501009C0AFF1FFC150100CC1DFF1F8B
:10169000041601004608FF1F4D07000078140100E2
:1016A00058150100F0B51B4EB06CADF5037D374603
:1016B000F8B14FF4007202A903F0CEFB002821DD3F
:1016C0000DF107040DF2072514F8012F124901A8A6
:1016D0000CF08AFB01A80CF013FC014601A809F0EC
:1016E00093FDAC42F0D10D4809F092FFB06C002898
:1016F000DFD1F86C30B14FF4007202A901F042FB67
:101700000028DDDC034801F0A3F9FFF733FD0DF5F8
:10171000037DF0BDF81FFF1F201601009C0AFF1F6C
:1017200010B52A4B2A488EB00D2100241C7009F0F8
:101730006BFD284809F06CFF274B28481C700D21D1
:1017400009F062FD234809F063FF254B9A6C002ADB
:1017500036D0244BD3F87844CCB121460123002461
:10176000214A8DF8004068468DF801408DF802400E
:1017700003F064FBD8B11D4B196821B101231A4A4B
:10178000174801F079F9FFF78DFF0EB010BDD3F8BF
:101790007C1461B10123144A8DF8314068468DF8FC
:1017A00032408DF8334001F0D7FE0028E3D11B21F1
:1017B0000F4809F029FD074809F02AFF0EB010BDB7
:1017C000DB6C002BC5D1FEF7C1FFC2E74608FF1F47
:1017D000281601009C0AFF1FD415FF1FC413010027
:1017E000F81FFF1F1C16FF1FD81FFF1FB820FF1F69
:1017F000A8130100F0B5154EB06CADF5017D37466C
:1018000098B14FF40072694603F026FB002815DDFD
:101810000DF1FF340DF2FF1514F8010F09F078FDFA
:10182000AC42F9D1B06C0028EBD1F86C30B14FF478
:101830000072694601F0A6FA0028E9DC034801F0CD
:1018400007F9FFF797FC0DF5017DF0BDF81FFF1FAD
:1018500030B52B4B8FB00D210024054629481C7054
:1018600009F0D2FC284809F0D3FE284B28481C7008
:101870000D2109F0C9FC244809F0CAFE254B9A6CD9
:10188000002A36D0244BD3F87844CCB1214601232A
:1018900000242A4668468DF800408DF801408DF8F6
:1018A000024003F0CBFAD8B11C4B196821B12A468B
:1018B0000123184801F0E0F8FFF79CFF0FB030BD9E
:1018C000D3F87C1461B101232A4668468DF8314073
:1018D0008DF832408DF8334001F03EFE0028E3D110
:1018E0001B210F4809F090FC074809F091FE0FB04A
:1018F00030BDDB6C002BC5D1FEF728FFC2E700BF6F
:10190000D415FF1FC41301009C0AFF1F4608FF1FC8
:1019100028160100F81FFF1F1C16FF1FB820FF1F0D
:10192000A813010008B5FEF711FFBDE80840FFF756
:1019300021BC00BF30B5404B1B7889B00546002B59
:101940005AD13E4B3E4C1B78002B46D123683C4974
:1019500013F0005412D03B4B1B78002B34D13A4A81
:10196000136801331360394A137883F00103194671
:101970000E20137008F00AFD09B030BD344A10463D
:101980001A408242F8D10B7C03F0F003102BF3D104
:101990002C4B30481B783049447403253022847422
:1019A000C573016002747BB3012B39D0022BE3D1E4
:1019B0002A4B2B4A1B680793079B12689B1A012B23
:1019C000DAD9FEF70DFED7E7012B18D0022BCAD1CA
:1019D000244A136801331360C5E7039504F110032B
:1019E00093E80300174A137802938DE8030094E804
:1019F0000F00FFF753F8A9E7FFF736FAA1E71A4AF5
:101A0000136801331360AEE7144B184A1B68059343
:101A1000059B12689B1A012BAED9FEF701FEABE7BE
:101A20000E4B134A1B680693069B12689B1A012BE8
:101A3000A2D9FEF711FE9FE74608FF1FD415FF1F2E
:101A4000481BFF1FB01DFF1FE015FF1FE51FFF1FF5
:101A500000F9DA003C15FF1FF900DA180087FF1FB4
:101A60000C16FF1FE815FF1FEC1FFF1F0416FF1FBA
:101A70000816FF1FFFFFFFFF454BD3F878042DE941
:101A8000704300286FD0C469057904F08BFB013CDA
:101A9000064618213F4809F0B7FB00230A222146D9
:101AA0003D4809F0C5FD3C4809F0B2FD17213B480F
:101AB00009F0AAFB00230A223146374809F0B8FD95
:101AC000354809F0A5FD1521354809F09DFB002397
:101AD0000A222946304809F0ABFD2F4809F098FD4D
:101AE0001121304809F090FB28460AF059FE804643
:101AF000894630460AF054FE42464B460AF0C6FE7E
:101B000000224FF081430AF0C1FE1FA3D3E9002356
:101B10000AF0E6FF41EC100B02211F4809F0C8FD56
:101B20001D4809F075FD12211F4809F06DFB204684
:101B30000AF036FE42464B460AF0A8FE00224FF05D
:101B400081430AF0A3FE10A3D3E900230AF0C8FFE3
:101B500041EC100B0221104809F0AAFD0E48BDE827
:101B6000704309F055BDD3F87C0448B190F83D347A
:101B7000D0F8284401259D4002F014FF064688E76E
:101B800005460446064684E70000000080842E4196
:101B90001C16FF1F241501009C0AFF1F40150100A1
:101BA00038160100501601006416010000B50E4BF6
:101BB0000E4A1B680E4883B0019301990D4B1160CA
:101BC000012200211A7007F067F800210A4807F087
:101BD00063F81021094809F017FB094809F018FDBE
:101BE00003B05DF804FB00BF0087FF1F8415FF1FD3
:101BF0000821FF1FF41FFF1FF053FF1F781601007D
:101C00009C0AFF1FFFF7D2BF10B50B4A0B4C0C48C4
:101C1000002301212370137007F03EF801210948C9
:101C200007F03AF81121084809F0EEFA0748BDE834
:101C3000104009F0EDBC00BF5415FF1FF41FFF1F3B
:101C40000821FF1FF053FF1F8C1601009C0AFF1F85
:101C500038B517211548164C09F0D6FA43F2E42599
:101C6000144B0A2259592046002309F0E1FC204672
:101C700009F0CEFC1721104809F0C6FA0F4B0A22D2
:101C800059592046002309F0D3FC204609F0C0FC36
:101C900017210B4809F0B8FA06210A4809F0B4FAEE
:101CA0002046BDE8384009F0B3BC00BFC0160100B3
:101CB0009C0AFF1F0821FF1FD8160100F053FF1FC9
:101CC000F01601000817010010B514211548164C34
:101CD00009F09AFA154B0A2219682046002309F0E8
:101CE000A7FC204609F094FC1421114809F08CFA55
:101CF000104B0A2219682046002309F099FC20465F
:101D000009F086FC14210C4809F07EFA0B4B2046A2
:101D100019680A22002309F08BFC2046BDE8104018
:101D200009F076BC101701009C0AFF1FE015FF1F89
:101D300028170100EC1FFF1F40170100E815FF1FC7
:101D400070B586B0FEF702FD184B194C194E0025F0
:101D50006420C3F87854C3F87C5408F055FB294636
:101D6000204605F0D9FA2046346004F0FBFE40B16D
:101D70001121114809F048FA104809F049FC06B051
:101D800070BD0E4B0E4A316801A802F0FBF8042129
:101D90000C4809F039FA094809F03AFC642008F0C7
:101DA00033FBFEF7C3FE06B070BD00BF1C16FF1F5D
:101DB000681DFF1F401BFF1F581701009C0AFF1FD3
:101DC000601BFF1F6C1701002DE9F04196499748F1
:101DD00094B007F02FFA002840F00281924994480D
:101DE00007F028FA002840F0F080924E924D934C74
:101DF000009433462946924A924806F0F7FD00289F
:101E000000F0F980904C914D23680393039B2A685E
:101E10009B1AB3F57A7F04D38D4B1B78002B40F0CF
:101E2000C180FFF791F88B4B1A78002A41D08A4F76
:101E30003A78022A00F2BD802368884A0593059B00
:101E4000116881485B1AFA2B00F2348109F0B2F96B
:101E5000012828DD78230A2210A88149814E09F043
:101E600023FD10A9804809F0F5FD10A809F080FDB8
:101E700000231422711C7C4809F082FE002416F80D
:101E8000015F28460BF0C0F90346002840F0888027
:101E9000202D00F08580744DAA68E4B2A24200F0C3
:101EA000728109F095F9714807F026FD14B0BDE87C
:101EB000F0816F4B19780029C8D0DFF8F48198F8C9
:101EC0000010022900F2598123686A4A0B930B9B88
:101ED00011685D485B1AFA2BB8D90368664D0D93FB
:101EE0000D9E664900682B88654F0C90D1F800E084
:101EF000644837F813300C9916604374CEEB010236
:101F00001B0A614E837408210223012AC1730660F3
:101F1000037401D9FEF784FB5C4B1B6853B1236843
:101F20005B4A0E930E9B12689B1A012B02D95548EF
:101F3000FEF792FB574B1B6853B12368564A0F9329
:101F40000F9B12689B1A012B02D94E48FEF748FBE3
:101F5000524A137883F0010319460E20137008F0DB
:101F600015FA2B88444A01339BB2082B40F20981B1
:101F700098F800304A4D4B4E0133002488F8003069
:101F800014802046092109F0E9FC013435F8023FAC
:101F900036F810202A80092C27F81030F1D155E7A7
:101FA00001346CE7FEF7D2FB23680493049B2B609B
:101FB00037E722680A922F4A0A982D4910600022BA
:101FC000012008703A701A7040E7304A36491368A9
:101FD00001330124184613600C70FFF7ABFC04E7D3
:101FE000324A3149136801330024184613600C70DB
:101FF000FFF7A0FCF2E60C4A264F31783B68D1731C
:1020000094E803000133DFF8A0E02D68156002F1C9
:10201000100484E80300022118463B608EF800108B
:10202000FFF788FCEEE600BF481BFF1F0821FF1FDB
:10203000F053FF1FEC15FF1F0016FF1FC41DFF1FED
:10204000B420FF1F6415FF1F0087FF1F6015FF1FCF
:102050005920FF1FF41FFF1F981DFF1F8415FF1F2E
:102060009C0AFF1F9B1DFF1F8815FF1F9815FF1F50
:102070005415FF1FE81FFF1FD41FFF1F0416FF1F6B
:102080004808FF1F3C15FF1FF9FFDA18BC1DFF1F92
:102090000816FF1FC01DFF1F0C16FF1FE51FFF1FA7
:1020A0004608FF1F1008FF1FB01DFF1FD815FF1F98
:1020B0005820FF1F0368A44D0793DDF81CE0A349D7
:1020C00000682B88A24E0690D1F800C0A14836F8CF
:1020D00013300699C2F800E00374CCEB01021B0A2E
:1020E000DFF8D8E2437403210023012AC173C0F84A
:1020F00000E0837401D9FEF793FA974B1B6853B144
:102100002368964A0893089B12689B1A012B02D9F0
:102110009048FEF7A1FA924B1B6853B12368914A8D
:102120000993099B12689B1A012B02D98948FEF773
:1021300057FA8D4A137883F0010319460E20137065
:1021400008F024F92B88804A01339BB21A2B18D946
:102150003B78864D013300243B70148020461B21C0
:1021600009F0FCFB013436F8102035F8023F2A80D4
:102170001B2C26F81030F1D168E67D491A700A70E0
:1021800064E6138062E67B4A7B4913605360936088
:10219000D360136110A809F02BFC10A9284609F0A0
:1021A000A9FC044610A809F0E3FB84B9734910A800
:1021B00009F01EFC10A9284609F09CFC044610A852
:1021C00009F0D6FB34B16E48FFF742FB69E6FFF732
:1021D000A7FA66E66B4910A809F00AFC10A9284680
:1021E00009F088FC064610A809F0C2FB4EB1664B08
:1021F00066481C700D2109F007F8654809F008FAD7
:102200004FE6644910A809F0F3FB10A9284609F02D
:1022100071FC044610A809F0ABFB54B15A4B5E4860
:1022200001220C211A7008F0EFFF594809F0F0F96B
:1022300037E65A4910A809F0DBFB10A9284609F037
:1022400059FC044610A809F093FB14B1FEF77EFA7E
:1022500027E6534910A809F0CBFB10A9284609F03E
:1022600049FC044610A809F083FB14B1FFF704FCF5
:1022700017E64C4910A809F0BBFB10A9284609F045
:1022800039FC044610A809F073FBBCB1464CD4F8E5
:10229000780430B1002300F23C401A463C4903F078
:1022A0009DFDD4F87C0400283FF4FBAD002300F52D
:1022B00088601A46364901F099F9F2E53B4910A8C1
:1022C00009F096FB10A93A4809F014FC044610A83E
:1022D00009F04EFBBCB1344CD4F8780430B100F2B4
:1022E0003C4000230E222A4903F078FDD4F87C04F8
:1022F00000283FF4D6AD00F5886000230E22244963
:1023000001F074F9CDE52B4910A809F071FB10A973
:10231000274809F0EFFB044610A809F029FB14B187
:10232000FFF70EFDBDE5244910A809F061FB10A9D7
:102330001F4809F0DFFB044610A809F019FB002C28
:102340003ED0FFF785FCACE5D41FFF1F0416FF1F2E
:102350001008FF1F3C15FF1FBC1DFF1F0816FF1FA5
:10236000C01DFF1F0C16FF1FE51FFF1F0E08FF1FDC
:10237000981DFF1F9C1DFF1F741701007817010097
:10238000D81FFF1F7C1701004608FF1F28160100F9
:102390009C0AFF1F84170100A01601008C17010082
:1023A00090170100941701001C16FF1F98170100D9
:1023B0008815FF1FA0170100A8170100F9FFEA18F0
:1023C000934910A809F014FB10A9924809F092FB58
:1023D000044610A809F0CCFA14B1FFF775FC60E5CB
:1023E0008D4910A809F004FB10A98A4809F082FB66
:1023F000044610A809F0BCFA3CB1884B88498948CA
:1024000001221A70FEF71CFA4BE5874910A809F063
:10241000EFFA10A97F4809F06DFB054610A809F0F6
:10242000A7FA35B17D4B81497E481C70FEF708FA4A
:1024300037E57F4910A809F0DBFA10A9754809F0C3
:1024400059FB044610A809F093FA14B1FFF7AEFB4C
:1024500027E5784910A809F0CBFA10A96D4809F0D2
:1024600049FB044610A809F083FA14B1FFF7CCFB2E
:1024700017E5714910A809F0BBFA10A9654809F0E1
:1024800075FB054610A809F073FA75B121460422C0
:10249000604809F08FFB23460D2210A95D4809F022
:1024A0006FFB10A8FEF7DEF9FBE4644910A809F001
:1024B0009FFA10A9574809F01DFB044610A809F01F
:1024C00057FA44B15E4B0FCB10AC07C410A8237071
:1024D000FEF738FAE5E44F4C5A4910A809F088FA9B
:1024E000204610A909F042FB064610A809F040FA60
:1024F0004EB1204600230D2210A909F041FB10A87F
:10250000FFF7A6F9CDE4504910A809F071FA10A917
:10251000204609F02BFB054610A809F029FA65B101
:1025200003223146204609F045FBA368032B42D025
:1025300046493C48FEF784F9B3E4454910A809F040
:1025400057FA10A9204609F011FB064610A809F019
:102550000FFA002E00F08A8006222946204609F054
:1025600029FB204609F042FB2B4610A904222046F5
:1025700009F006FBA268374B37491D60032A198012
:1025800099703BD0022A32D0012A04BF9DF8402026
:102590009A703048FEF772FA20B3042208212D48C1
:1025A00007F0EEFC2D491F48FEF73CF929491D486C
:1025B000FEF746F975E4204609F018FB334620463D
:1025C0000422274909F0DCFA04221146244807F0C6
:1025D000D7FC24491348FEF725F921491148FEF795
:1025E0002FF95EE420490F48FEF72AF959E49DF8D7
:1025F00040109DF8412059709A70CAE79DF840003C
:102600009DF841109DF84220187059709A70C0E7EB
:10261000B01701008815FF1FB8170100D415FF1F60
:10262000B01601009C0AFF1FC4170100C41301006B
:10263000D0170100DC170100E8170100F0170100B6
:10264000A81501003815FF1FFC1701001418010020
:1026500028180100E415FF1F303030003018010049
:102660001816FF1F0018010048180100324910A871
:1026700009F0BEF9204610A909F03CFA044610A85A
:1026800009F076F9002C51D02C492D48FEF7D8F8E6
:102690002C492B48FEF7D4F82B492948FEF7D0F8EF
:1026A0002A492748FEF7CCF829492548FEF7C8F8FB
:1026B00028492348FEF7C4F827492148FEF7C0F807
:1026C00026491F48FEF7BCF825491D48FEF7B8F813
:1026D00024491B48FEF7B4F823491948FEF7B0F81F
:1026E00022491748FEF7ACF821491548FEF7A8F82B
:1026F00020491348FEF7A4F81F491148FEF7A0F837
:102700001E490F48FEF79CF81D490D48FEF798F842
:102710001C490B48FEF794F81B490948FEF790F84E
:102720001A490748FEF78CF8FFF7BBBB1849044865
:10273000FEF786F8FFF7B5BB6018010068180100C6
:102740009C0AFF1F84180100C81801001819010015
:10275000541901007819010098190100BC190100F1
:10276000E0190100081A0100401A0100641A010072
:102770009C1A0100D01A0100F01A0100101B010080
:10278000581B0100A01B0100D41B0100181C0100F4
:10279000881C01002DE9F04F93B007F05DFB8648DF
:1027A000864D874E874FDFF860A2DFF86092DFF832
:1027B000608207F06FFA844B8449C3F89864002460
:1027C0004FF0260B824EC3F888742A46C3F878442B
:1027D000C3F87C4483F8944483F8AB44C3F8AC4416
:1027E00083F8A8B4C3F8B06418460AF0D3FC79495A
:1027F000734E0C714FF47A738B600193764B0C73AC
:102800002A468C64CC640B60084651460AF0C2FC30
:10281000DFF800E2019BCEF808308EF804408EF815
:102820000C4070466C4BCEF800302A465146CEF82C
:102830004840CEF84C400AF0ADFC2146484609F02D
:10284000D7F82A46414648460AF0A4FCDFF8C8916A
:10285000624801231A46142106F0AAFF2146484681
:1028600009F0C6F82A46414648460AF093FC07F0AC
:10287000A7FD5B4B0F2118605A4806F01FF85A4B12
:10288000DFF898C11A680392DDF80C801A68049288
:10289000DDF810E01A68059205981A680692069904
:1028A0001A680792079AD3F80090CDF82090CCF8D8
:1028B0000080DFF86C81DDF820A0D3F80090CDF81F
:1028C0002490C8F800E0DFF85CE1DDF824C0D3F81C
:1028D0000080CDF82880CEF80000DFF84C81434816
:1028E000C8F800200160DFF844E14148414A0A99F4
:1028F000CEF800A0C0F800C011601A680B92DDF895
:102900002C901A680C92DDF830C01A680D92DDF830
:1029100034E01A680E92DFF818810E981A680F9248
:10292000C8F80090DFF80C910F9ADFF80C81196855
:102930001091C9F800C0DFF804911099C8F800E0C0
:102940001B68DFF8FC801193C9F80000DFF8F4C0C1
:1029500029482A4BDFF8F0E0C8F80020DDF8448071
:10296000CCF80010C0F800804FF0200C41F20A01B2
:102970004FF00208CEF814408EF808C0CEF80C10C4
:102980002A46DFF8C8C08EF810801D4D8EF818401A
:102990001C7383F823405C620D4C1A491F60184673
:1029A0001E6183F820B09C628EE820100AF0F2FBD2
:1029B00013B0BDE8F08F00BF1016FF1F0C08FF1FFB
:1029C000181F0100701F01001C16FF1FB504000036
:1029D00003200038F81FFF1F7C1301009815FF1F0C
:1029E0007C15FF1F6415FF1F0087FF1F6020FF1F5E
:1029F0000416FF1F0816FF1F1416FF1F681DFF1F78
:102A00005C130100AD040000E10400004820FF1F3A
:102A100071B900006420FF1F8815FF1FF01FFF1F02
:102A20005815FF1FD81AFF1F5C20FF1F5C15FF1FE2
:102A30000C16FF1F8415FF1FE81FFF1F6015FF1FE7
:102A4000441BFF1F601DFF1F1C15FF1F9C0AFF1F5B
:102A500010B50446806C28B102F062F910B1002371
:102A6000A36410BDE06C28B100F0BCF810B10023E5
:102A7000E36410BD002010BD00293BD02DE9F041DA
:102A80000C46054698461746FFF7E2FFD4F87864EF
:102A9000B6B105F11001242005F03EF900210170C6
:102AA00041708170D4F87814A86443463A4602F025
:102AB000C5F910B10120BDE8F081A864BDE8F0813E
:102AC000D4F87C34C3B105F11001382005F024F9A5
:102AD00080F8316080F8326080F83360D4F87C147C
:102AE000E86443463A4600F037FD0028E2D1E86446
:102AF000BDE8F081002070470020BDE8F08100BFF4
:102B000070B500260546C0F88014C0F87864014608
:102B10004FF48F6005F000F90446466001F0F6FCC2
:102B2000C4F8106204F5037001F0F0FC84F83C6412
:102B300084F8716484F8726484F87364D5F88064EE
:102B4000C5F87C4431462046012201F0A7FD68B15A
:102B500004F58866304600F045F82146304600F01E
:102B6000ADF850B11E4B01201D6070BD02463146CC
:102B7000204601F093FD0028EAD10026C5F87C64C8
:102B800029464FF48C6005F0C7F8C67180F83C64A4
:102B900080F83D6480F83E64D5F88064C5F8780418
:102BA00001223146044603F055FB80B104F23C4655
:102BB000304602F0B5F82146304602F047F90028C9
:102BC000D0D1074B00201860C5F8780470BD0246CC
:102BD0003146204603F03EFB0028E7D1F1E700BF75
:102BE000B820FF1F10B5044600F0D6FE002384F87D
:102BF000313084F8333010BDF0B50878202803D187
:102C000011F8010F2028FBD051600878002851D01E
:102C10002F282BD05C2820D0A0F12204E4B21D2C58
:102C20001DD9DFF894E04E1C00247C28A0F120057B
:102C3000374612D05E2D10D816F8010BA0F12205F0
:102C4000EDB2013478B32F2811D05C282EFA05F7A5
:102C500003D01D2DE9D8FD07E7D50020F0BD164DA6
:102C600025FA04F4E607DCD50020F0BD00240F1996
:102C70003E4625462F2002E016F8010F0135202898
:102C8000FAD02F28F8D02944196044B1394611F8F8
:102C9000013D2E2B01D0202B08D1013CF7D120463D
:102CA00010600120F0BD1F600F19EFE7FF2CF6DD6B
:102CB0000020F0BD1960F3E70101003590F83120E4
:102CC0000AB10020704738B504460D461146382237
:102CD0000AF02EFE4023012084F8313084F83300BE
:102CE000256238BD2DE9F04700F1240307468A46E6
:102CF00093E8070084B097F831300DF1040888E8B4
:102D00000700002B3AD097F83030012B36D94FF01E
:102D100001090024B9F1010F14BF202240224146CD
:102D2000386A01F0B7FD012828D100224146386AEF
:102D300001F096FD10B30378C12B1FD1054604F1B5
:102D40000F0635F8021FA9B1DAF800307E2994BFCA
:102D5000C9B23F211B68013450469847A642F0D1C2
:102D600009F1010997F830305FFA89F94B45D1D85C
:102D7000304600E0204604B0BDE8F087002004B0F3
:102D8000BDE8F0872DE9F04790F833300446D807C6
:102D900082B040F1B2800D465906164640F1B88027
:102DA000D4E90001D4E9042310EB060841F100093D
:102DB0004B4508BF4245C0F0B180002E00F0B08006
:102DC000A146F9E80623B04655E0134371D194F8C3
:102DD00031305B064CBFD0F82C14E169A16190F84A
:102DE0003DE4D0F8243402397F0A01FA0EF2F918D2
:102DF0001144BAF1000F48D1B8F5007F45D3D0F89F
:102E00001432994241D0B8F5806F59D394F83320E9
:102E100052064FEA582A07D4012202FA0EFEC7EBE7
:102E20000E07BA4528BFBA4699424FEA4A270CD343
:102E30000AEB01029A4208D900F50370019101F0F2
:102E4000CBFB002859D0206A0199D0F838040268D9
:102E50005346D2F80CA02A46D04700284DD0384619
:102E60000021D4E9002312184B41B8EB07083D4478
:102E7000C4E9002354D0206AD0F830741740C7F357
:102E8000080A002FA1D0A169A9E700F5037000226C
:102E900001F042FB88B3CAF50077474528BF474693
:102EA00000EB0A013A46284606F03CFF384600216E
:102EB000D7E794F8333059060FD5A16901318DE772
:102EC000D0F8380403682A469B689847A8B14FF4A5
:102ED000007000214FF40077C3E74A46A16901F072
:102EE00005FD40B2002808DB02D0206AA16976E720
:102EF00094F8313013F0500F14D194F832304FF071
:102F0000FF3043F0020384F8323002B0BDE8F087AE
:102F100094F831301A073FF543AF4EE7161A4CE7E5
:102F20004FF00008C8EB060002B0BDE8F08700BF14
:102F3000F0B583B001220DF107010446D0E9006726
:102F40008569FFF71FFF012808BF9DF80700A561ED
:102F500018BF4FF0FF30C4E9006703B0F0BD00BFF9
:102F60002DE9F04F90F831E0856983B00446BEF159
:102F7000000F1BD0D0E90001994208BF90421646CD
:102F80001F463BD056EA070307D10023A361012067
:102F9000C4E9006703B0BDE8F08F1EF0080F0AD047
:102FA000D4E90423BB4208BFB24204D2A561002089
:102FB00003B0BDE8F08F236A019393F83DC494F801
:102FC00033A00CF1090C5FFA8CFC16F1FF3247F1CB
:102FD000FF33CCF1200803FA08FB22FA0CF242EA94
:102FE0000B02ACF1200B23FA0BF31AF0400F42EA6C
:102FF000030205D0E3691A44A261C8E70120D7E7BC
:1030000010F1FF3941F1FF3A29FA0CFC0AFA08F8ED
:103010004CEA080C2AFA0BFB4CEA0B0C62455346AF
:1030200017D21EF0400F16BF019BE369D3F82C3472
:10303000A361904604F118094A46B8F1000FA6D0E2
:10304000A169206A01F052FC08F1FF380028F3D191
:10305000ACE750EA0103E4D0CCEB0202E9E700BFA1
:103060002DE9F04F93B090F8314000920D469DF855
:103070007010029106462CB99A4695F8313013F03B
:10308000500F07D1002086F8310086F8330013B0C6
:10309000BDE8F08F009B002B00F0118122465146C5
:1030A000009801F01DFD95F831300490002B40F0A0
:1030B000FB80B84A0AF10E0382FB03121A44DB17A5
:1030C000C3EBE203029ADBB202F00702059302337C
:1030D0004FF000095FFA83FB42F0400301924C4637
:1030E0004F46039320220AA92846FFF74BFE0028EB
:1030F0003DD02028C6D19DF828301A0663D4002C74
:103100005ED12A68A9690791203A08920134E4B295
:103110006BB3C02B00F09E80C12B5FD0852BE1D11B
:103120003822002130460AF003FC9DF82C309DF82F
:10313000292086F8302003F03702DB0658BF42F022
:10314000080286F831202B68296AAA697262203B3E
:103150003162B36295F83330C3F3801386F82C30B4
:1031600020220AA92846FFF70DFE0028C1D1029BA4
:1031700003F04203422B85D1009B002B82D05C459B
:103180000DD39EE020287FF47DAF24B92A68A96979
:103190000791203A0892DCB2A34540F292802022A7
:1031A0000AA92846FFF7EEFD631C0028EAD128464D
:1031B000AF6900F021FC00283FF464AFAF61EBE79A
:1031C0005C45A5D2A2E7B9F1000FA2D15C4538BF9A
:1031D0000024852B86D14FF00109A1E7C7EB0A082F
:1031E0005FFA88F8B8F10F0F28BF4FF00F08434679
:1031F0003A4600990AA801F091FC00284BD04744B8
:10320000FFB2BA457FF46EAF029B18063FF53AAFA6
:10321000029B13F0320F05D096F8313013F0110FE6
:103220007FF430AF029AD106134640F1B5809A0779
:103230007FF528AF002200233046FFF791FE0028DB
:103240003FF420AF304600F04DFC00283FF41AAFA9
:1032500001201CE79DF829309DF8042086F83320D2
:103260009F0744BF9DF80C3086F83330DDE90C230E
:10327000DDE91001C6E904230F9BF361009BC6E959
:103280000201002BC0D09DF82B30534505D04FF0E4
:1032900000094F4626E7814624E7BDF82C30049A02
:1032A0009342F4D100271DE7D5E9002313433FF4EF
:1032B00000AF00220023C5E90023AC61F9E60493C6
:1032C000F7E695F833303822C3F3801300213046F7
:1032D00007AC8DF824300AF02BFB2B6A029D336279
:1032E00094E8070005F00707082567F07D0986F8D0
:1032F00031500AF11E0706F1240585E80700FFB2E8
:10330000009DCDF800904FF000081846012221469C
:1033100001F0A6FA814600283FF4B4AE90F90020EF
:10332000002AFFF6AFAE202200210AF001FBB8F11F
:10333000000F53D0B8F1010F3FD0C8EB08120F2F88
:10334000A2F11E024FF0C101384628BF0F20D2B2B1
:1033500089F8001058B109F1020300B203EB4000F4
:103360002A4412F8011B23F8021B9842F9D108F1F4
:1033700001085FFA88F8C3451BD920222146306A2C
:1033800001F088FA01287FF47DAE0F3FFFB2306A6A
:10339000BCE700BF89888888029B9B067FF558AFF1
:1033A000D6E904233046FFF7DBFD00287FF450AF59
:1033B00068E6304600F0F0FA69E69DF80030C0217A
:1033C000032289F8001089F8012086F83330BDF80F
:1033D000103089F803A0A9F80430C8E7059B5A1CEF
:1033E000D2B285210B4B89F8001086F8302089F87D
:1033F00001201A68002ABAD00DF11A0106A89047D8
:10340000BDF81A10BDF81820A9F80810A9F80A206C
:10341000ADE700BF0421FF1F90F8313053B930B53C
:1034200091F8314014F0500483B00D4604D1204689
:1034300003B030BD00207047D5E90045002504F0F9
:103440001F042C4302D0184603B030BD00921A4628
:10345000FFF706FE03B030BD2DE9F043064695B0F8
:1034600096F83140039200208DF849008DF84A000B
:103470008DF84B0034B9994691F8313013F0500F64
:103480000D4603D1002015B0BDE8F08313782F2B33
:10349000144633D04FF00108214603AB04AA30464E
:1034A000FFF7AAFB0028EDD0039B1B78002B3AD036
:1034B0009DF81030059ACDF8008029463046FFF778
:1034C000CFFD0028DED0344606AF06F1300E20686E
:1034D0006168A268E3683D460FC5103474452F4605
:1034E000F5D120682860304600F056FA002386F8AF
:1034F000313086F83330039C06ADCDE701340394B8
:1035000021782F29FAD0D1B1382206A800212F6ABC
:103510000AF00EFA4022012306AD0E978DF84920DD
:103520008DF84B30B6E79DF81030059ACDF8009035
:1035300029463046FFF794FD15B0BDE8F0833822E8
:1035400030462C6A0AF0F4F940230120346286F8F0
:10355000313086F8330096E721B1DBB201F588619E
:10356000FFF77ABF0846704770B586B006AD0022F7
:103570000469436905F8042D0E4619460A22002302
:10358000204609F07BFC303400EB8003A4EB4304BD
:1035900050EA010205F8014D0B460446EDD102AB9D
:1035A0009D4206D92946202201F8012D9942FBD1DE
:1035B00002AD28460AF0A4FC3368024629465B683F
:1035C0003046984706B070BD034610B5006A0C46F9
:1035D000002203F1240101F043F928B1C16820461B
:1035E000BDE8104004F094BB10BD00BF2DE9F043CE
:1035F0008FB000241746804600221E4600230D4649
:103600008DF831408DF832408DF8334007F00209D3
:10361000FFF7A6FC0122414668465FFA89F9FFF7E9
:10362000FBFE002840D09DF83130980701D5F907FE
:1036300030D5002446B12B68013420211B68284670
:10364000E4B29847A642F6D1B9F1000F3FD17A070C
:1036500033D429466846FFF745FB9DF8313013F017
:10366000500F24D12B680D211B68284698472B68E2
:103670000A211B68284698473B070BD59DF8313037
:1036800013F0500F06D0B31CDBB23A462946684609
:10369000FFF7ACFF6846FFF7A5FA012241466846EE
:1036A000FFF7BAFE0028BED10FB0BDE8F0832B684B
:1036B0002F211B6828469847D4E729466846FFF71C
:1036C00053FF2B6820211B6828469847C1E72946ED
:1036D0006846FFF779FF2B6820211B68284698472A
:1036E000B5E700BF8169F8B50446006A01B1013150
:1036F000012200F079FF012806462FD90123014657
:103700001A46206A01F03AF8074638B3A06994F8DF
:10371000333030B35A0613D5421C964225D023F0DD
:10372000400284F83320E36905E0206A01F0E8F8FC
:10373000A0B1A0692B465D1C834219462A46F4D3EA
:103740004FF0FF323146206A01F0DAF830B1A1695A
:1037500059B13246206A01F0D3F830B90027384613
:10376000F8BD43F0400384F83330A6613846F8BD15
:103770002DE9F04300F12403054693E8070085B0E6
:1037800095F8333001AE86E807009A071BD5E96942
:10379000E9B9002401223146286A01F061F80134B8
:1037A000E4B280B1037803F07F03037095F8303002
:1037B000A34231D3002CEDD020223146286A01F0FB
:1037C00069F80128E6D0002005B0BDE8F0835B066B
:1037D000286A1CD5D5E9022390F83D440934E4B2A7
:1037E00012F1FF3843F1FF39C4F1200709FA07F756
:1037F00028FA04F2A4F1200329FA03F33A431A4306
:103800000132002300F0BAFF0028C2D1DBE701F04B
:1038100089F80028BDD1D6E72C6A0023204685F818
:10382000313085F8333000F0D7FE0028CBD004F5D6
:10383000037000F0D1FE0028C5D0D4F83804036826
:103840005B699847C0E700BF2DE9F04F00F1240AFB
:1038500006469AE8070087B00DF10C0888E80700D3
:103860000027DFF830B1B9463C4600224146306AB5
:1038700000F0F6FFFBB2054630B10078C0284DD00D
:10388000C1282BD0852809D096F8323043F00103A7
:1038900086F83230002007B0BDE8F08F96F831107E
:1038A000DBF8002095F8019001F03701A980AAB15A
:1038B000306A019390F80C1241F0010180F80C126B
:1038C0000DF10A0102A89047BDF80A10BDF80820C2
:1038D0002878019BA9812982EA816A82002115F852
:1038E00001E0E20342EA54041EFA84F40129A4B27E
:1038F00001F101010DD01F29F1D999452CD02022C9
:103900004146306A00F0C6FF012807F10107ACD03C
:10391000BAE785280CBF04210221E0E796F833209E
:1039200012F0400F6A7814BF42F0020222F0020245
:103930006A70D6E90401C5E90201D6E90201F2691B
:103940006A61C5E90601316A91F80C2242F0010270
:1039500081F80C222878C1E751460122306A00F034
:103960007FFF002890D0356A4480284600F034FE5E
:10397000002889D005F5037000F02EFE002883D0C2
:10398000D5F8380403685B69984700283FF47CAF9A
:1039900081E700BF0421FF1F90F8312092B138B5B4
:1039A00090F8332011060FD4056A0446284600F02B
:1039B00013FE88B994F8323043F0010384F83230B2
:1039C000002038BD0120704702F07F0280F83320CC
:1039D000BDE83840FFF738BF05F5037000F0FCFD87
:1039E0000028E7D0D5F8380403685B6998470028B9
:1039F000E0D0012038BD00BF2DE9F04190F8313012
:103A00005906044663D48068236AD3F834341844D2
:103A1000B0F1806F02D30020BDE8F0812046FFF7AF
:103A200061FE0028F7D0266A96F80C32DA0706F510
:103A3000037550D4284606F5067600F067FD4FF46E
:103A400000720021304609F073FF226AA36992F8E0
:103A50003D04D2F82414A3F10208012708FA00F863
:103A600017FA00F3884418BF002511D0D2F83804A3
:103A7000036808EB05019B69324698470135002829
:103A8000C9D0226A92F83D3407FA03F3AB42EDD86D
:103A900094F831305B0615D494F8333063F07F032B
:103AA00084F83330D2F83464D4E90223D4E9040131
:103AB00092194FF000077B4180197941C4E9022334
:103AC000C4E904012046BDE8F041FFF765BF006A84
:103AD00000F0A2FF98E7284600F07EFD0028A9D15B
:103AE00099E700BF90F833309A0718D5F0B5C5694B
:103AF00083B08DB103F04003044603F0FF0083B9A7
:103B0000A169002941D10195E1612946206A00F0AF
:103B100009FF30BB002000E0012003B0F0BD002011
:103B20007047206AA16990F83D34D4E902670933EF
:103B3000DBB216F1FF36C3F1200E47F1FF3726FA4C
:103B400003F207FA0EFE203B42EA0E0227FA03F3C5
:103B50001A430132B1B1013D6D1A01312A4401917C
:103B60000ABBD4E9000194F8333063F07F03C4E961
:103B70000201C4E9040184F833302046FFF70CFF4A
:103B800003B0F0BD0195E161EAE702AA42F8040D35
:103B9000206A00F0ABFE40B20028BBDB0AD1019DD9
:103BA000002DDED0B1E70023019900F0E7FD0028E9
:103BB000D7D1AFE74FF0FF32A169206A00F0A0FE35
:103BC0000028ECD1A6E700BF2DE9F04F90F8333084
:103BD00085B09C07064601920AD496F8323043F02D
:103BE000010386F832304FF0FF3005B0BDE8F08FAA
:103BF0005A078A4600F11281019B002B00F02281B6
:103C00003146F1E80623DDF8048003919346306ADB
:103C1000B569D0F830445B461C40C4F308094CBB7E
:103C2000002D00F0BE8096F833305B0640F1DD8059
:103C3000D6E9022390F83D740937FFB212F1FF3242
:103C400043F1FF33C7F1200E03FA0EFE22FA07F10B
:103C5000203F23FA07F741EA0E01F36939430B4489
:103C60009D42C0F0B5803046FFF73CFD0028B4D03F
:103C7000306AB569D0F8247490F83DE4640A023DD6
:103C8000E11905FA0EF52944B9F1000F40F08280E0
:103C9000B8F5007F57D2D6E90423D6E90045B8F538
:103CA000007F474628BF4FF400779D4208BF9442EB
:103CB00034BF0122032200F5037000F02DFC002820
:103CC0008BD048443A465146B94406F02BF8B9F532
:103CD000007F00F0928038460021D6E90023D6E923
:103CE000044512EB000B43EB010C65455A46634655
:103CF00008BF5C45BA44C7EB0808C6E9002309D2EF
:103D000096F8331064465B46C6E9043461F07F01DF
:103D100086F83310B8F1000F7FF479AF5A46634646
:103D2000D6E90201994208BF90427FD3474B1B68F6
:103D3000002B00F0858096F83330019863F07F0304
:103D400086F8333051E7B8F5806F2ED3012303FA9C
:103D50000EFEC4EB0E0ED0F814324FEA5824744510
:103D600028BF744699424FEA442709D362189A4201
:103D700006D900F50370029100F0C8FB306A029981
:103D8000D0F83804056823465246EC69A04700285D
:103D9000A1D122E7C9F50077474528BF4746012250
:103DA00089E7F569BDB1B56164E7D0F8143299428D
:103DB0002CD0D0F83804036852469B6998470028F5
:103DC0003FF40BAF4FF4007000214FF4007784E70D
:103DD0000135B5614EE73046FFF784FC00283FF41B
:103DE000FCAEB569F561306A44E72946039A00F0F4
:103DF0007DFD00287FF43CAF35E7306A00F50370A5
:103E000000F0EAFB00287FF466AFE6E600F50370F9
:103E1000029100F07BFB306A0299CAE7D0E90423E3
:103E2000FFF79EF800283FF4D8AEE5E696F8331089
:103E3000019861F07F01C6E9022386F83310D4E6C9
:103E40000198D2E6D6E900236AE700BF0421FF1FEC
:103E50008368C3F308038BB100210269D154013395
:103E6000B3F5007FF9D1C3680269016810B41C681A
:103E7000A469184623465DF8044B18470120704793
:103E800082680346C2F30802006930B481545D6859
:103E9000986840F2FF1401EB75010130A2425960AD
:103EA000986002D0012030BC7047D8681968046857
:103EB0001A69A4694D1C1D60234630BC184700BF19
:103EC00038B50C46C9B20546FFF7DAFF00B938BD70
:103ED000210A2846BDE83840FFF7D2BF2DE9F84354
:103EE00000268046016086604660B0B200F0A0FD0A
:103EF000B042814605460DD001464046FFF7E0FF3F
:103F0000A0B30136B6F5803FEFD34046BDE8F84395
:103F1000FFF79EBF741CB4F5803F14D1C6F58037FF
:103F2000B7F5007F4FF480341AD2A9B24046FFF7AC
:103F3000C7FF0135D0B1A542F7D32E46E2E70134E1
:103F4000B4F5803FEAD0A0B200F072FDA042F6D0F6
:103F5000A71BB7F5007F03D2A642E6D34E46C4E7BF
:103F60004FF6FF714046FFF7ABFF10B90020BDE8E8
:103F7000F883B9B24046FFF7A3FF0028F6D02646E3
:103F8000C0E700BF2DE9F04F16460A68C160066120
:103F90008DB08146126908460F4698469047B0F5A5
:103FA000801F15D2B8F1000F0DD0D8F80030AB4902
:103FB0005B68152240469847D8F80030A8495B68EE
:103FC00040460F229847002420460DB0BDE8F08FF0
:103FD0000222012301E090424CD90133DBB2202BB5
:103FE0004FEA4202F7D1A3F10B0252100121D4B2E1
:103FF000914005940391013301245B1004FA03F30B
:10400000049303FA04FA9B000193019BC01A20FA5F
:1040100002F303FA02F400214FF4007230460293D7
:104020004FF0010B09F084FC0025FF230721FE223D
:1040300086F8C21186F8C32186F8BFB186F8C0B1F0
:1040400086F8C15186F8C43186F8C5313B68C6F898
:10405000C6A14AF6552254449B69C6F8CA41A6F83F
:10406000FE212946324638469847B0B9B8F1000FCC
:10407000A2D1A8E71C2BB6D808221A2B059200F271
:10408000B0814FF4004301934FF4807303934FF4D6
:1040900000534FF4804A0493B7E729464FF4007267
:1040A000304609F045FCEB23337076209021452201
:1040B0006C4B7070B170F2701B68B464049C0B930D
:1040C00034657465029CDDF82CE0F46558209DF899
:1040D00014407564462141225423F564A6F86A50C1
:1040E00086F86D4086F870502024C6F864E0307180
:1040F0004FF0040C4FF480754FF0090E8020717161
:10410000B271F371C6F840A0C6F858A086F86EB038
:1041100034727472B472C6F860C0A6F8685006F1C2
:10412000770386F86CE006F2FD1186F86F00F42242
:1041300003F8012F9942FBD14AF655220023A6F835
:10414000FE211C46012501E001330135A3F16A027D
:10415000012A04D9702BF7D0F25C02EB7404B5F598
:10416000007FF1D13B6832469B69514638469847FB
:1041700000283FF47BAF3B6832469B690AF10C0193
:104180003846984700283FF471AF2A460021304650
:1041900009F0CEFB4AF65523A6F8FE310AF10903D1
:1041A0000593731ECDF824900AF1010B069306F2D5
:1041B000FF15CDF820A09946CA464B4613F8012FAB
:1041C0009D4202EB7404F9D13B6832469B69594623
:1041D0003846984700283FF449AF3B6832469B6910
:1041E0000BF10C013846984700283FF43FAF059B80
:1041F0000BF1010B5B45DFD1DDF82490CDF81CA05D
:104200004FF40072DDF820A00021304609F090FB49
:10421000CDF82090DDF814900AF10B0B069B13F8F3
:10422000012F9D4202EB7404F9D13B6832469B6931
:1042300049463846984700283FF418AF3B68324655
:104240009B6909F10C013846984700283FF40EAFEE
:1042500009F101035B4507D09946DFE7981C01008F
:10426000F81C01000087FF1FCDF81490DDF82090A6
:10427000331F06F5FE7243F8044F9342FBD13B68AF
:1042800059469B6932463846984700283FF4EEAEBF
:104290003B6805999B690D3132463846984700289E
:1042A0003FF4E4AEB8F1000F06D0D8F800308949E9
:1042B0005B680C2240469847029B4FF40072002135
:1042C00030469D0009F034FB3346F82203F8132BE7
:1042D000049A0799524405F2072514466A0A1046C3
:1042E000FF2201F8012F8B42FBD14FF0000B234638
:1042F000CDF810905C46AD0B81469B4604E0002C47
:1043000068D00134A1451CD0B4FBF5F305FB134381
:104310004BB9012270494046B8F1000F03D0D8F8DC
:1043200000305B6898473B6832469B6904EB0B01A1
:10433000384698470028E2D1B8F1000F7FF43CAE30
:1043400041E6DDF81090B8F1000F30D0D8F8003019
:1043500062495B68022240469847029C039B0734EF
:10436000E40804F2FF156D0A9D423FF625AE4FF4B6
:1043700000720021304609F0DBFA072333704FF05A
:10438000000B06E0BBF1000F7ED00BF1010B5D4589
:104390002BD03B6801999B6932465944384698476F
:1043A0000028EFD1B8F1000F7FF406AE0BE6029CB7
:1043B000039B0734E40804F2FF156D0A9D423FF6A3
:1043C00002AE4FF400724146304609F0B1FA0723BD
:1043D0003370D4E74FF400722146304609F0A8FA52
:1043E0008FE74FF48071039105E6B8F1000F5ED0BE
:1043F0003B494046FCF716FA039B4FEA4A0A0AEB90
:1044000003014846FFF76AFD00283FF4D5ADD9F80F
:104410000830039AB3EB422F3FF6CEAD3149404608
:10442000FCF700FA4FF400720021304609F080FAE0
:104430000323822281200221337086F820007163D9
:1044400086F84020D9F8042072647365039AD9F87D
:104450000830B3650025B4630AEB420AF56504E051
:10446000F5B1039B01359D4211D03B6832469B69F3
:104470000AEB05013846984704460028F0D1B8F108
:10448000000F7FF499AD9EE586F800B07DE7B8F1A6
:10449000000F3FF499AD40461349FCF7C3F993E58B
:1044A0004FF400722946304609F042FAD9E7039BDF
:1044B0004FEA4A0A0AEB03014846FFF70FFD0028BE
:1044C0003FF481ADD9F80830039AB3EB422F3FF6A1
:1044D0007AADA7E7B01C010094140100EC200100A4
:1044E000C01C0100D81C0100E81C010010B500F13F
:1044F0000C0204464068A16803689B69984718B19C
:10450000237823F00103237010BD00BF00224FF079
:10451000FF33027083607047F8B54568FDB183686A
:104520008B42044617460E460ED00378DA0712D4A3
:10453000BB0716D504F10C0507F001020023134355
:1045400023702846A660F8BD10F90C3B07F0010265
:1045500013432370F8BDFFF7C9FF0028E8D10020FE
:10456000F8BD6068036804F10C059B682A46314673
:1045700098470028E0D1F2E738B50C46D0F81C1473
:10458000154601EBD41100F503700022FFF7C4FFBC
:1045900040B1A400C4F3080403595A1C04D02B6092
:1045A000012038BDFF2038BD002038BD38B50C468D
:1045B000D0F81C14154601EBD41100F5037001224C
:1045C000FFF7AAFF034628B1A400C4F308040120A2
:1045D0001D5138BD38BD00BF0378DB0701D4012071
:1045E0007047FFF783BF00BF2DE9F84F8046914623
:1045F0008B46002944D08F1ED8F828349F423BD2E6
:1046000007F00705012303FA05F5EDB2C7F3C80A61
:104610003E463C46D8F82414002201EB14314046B3
:10462000FFF77AFFC0B110F80A100AE04A452AD015
:10463000A74210D0D8F82824944217D213F0FF05CF
:104640000CD001340D424FEA4503A4EB0602EDD035
:10465000A7422646EED10120BDE8F88F0AF1010AF3
:10466000BAF5007F4FF00105DDD101E000263446A8
:104670004FF0000A0125CDE70027BA460125C7E71C
:10468000D0F81874B8E7BBF1000F04D1B9F1010FED
:1046900008BFC8F81864B01CBDE8F88FF8B5044628
:1046A00000234FF0FF3600F50377C0F8381441605F
:1046B000C0F810121546384684F83C34237084F84C
:1046C0000C32A660C4F814621A461946FFF724FF9C
:1046D000042D0CD8064650B15DB905222649F01CC0
:1046E00009F07CFC18B996F86C30092B19D0002021
:1046F000F8BD6B1E00EB031393F8BE2112F07F028E
:10470000F5D193F8C231002BF1D000EB05153846F6
:10471000D5F8B6512946FFF7FFFE06460028DCD142
:10472000E5E7336D2B44C4F81C34736DC4F82034B2
:10473000B36D1D44C4F82454F36DC4F82834336EAB
:10474000C4F82C3496F86D3084F83D3401250933D3
:1047500005FA03F35A1EC4F818040146C4F83434A9
:10476000C4F8302420462A46FFF73EFF402384F851
:104770003C342846F8BD00BF081D01002DE9F04774
:1047800002398046D0F8280415468A18824238D863
:104790009A46D8F81834BAF1000F35D1994238BF8B
:1047A000C8F8181401F007040122D8F8243402FADA
:1047B00004F4E4B203EB1139C1F3C80601224946FF
:1047C00040469144FFF7A8FED8B1871900F5007064
:1047D00017F8012B224214BF01260026564582EA13
:1047E00004024FEA44040CD0013D07F8012C15D017
:1047F00014F0FF04EED1B84226464FF00104E7D191
:10480000DCE70020BDE8F0879942CBD89A42C9D9AD
:10481000824228BF0022C8F81824C3E70120BDE85F
:10482000F08700BF70B582B002AE054646F8041DA1
:104830000024D5F8283401990133994202D9002087
:1048400002B070BD32462846FFF796FE40B20028FF
:10485000F5DB04F10104ECD1204602B070BD00BFCD
:10486000F8B50E4696E82800D0F83014D0F8244465
:1048700090F83D742940023B04EB5121BB401944A0
:1048800000F50370FFF748FE18B17368C3F308031F
:104890001844F8BD70B54C680D46A318D0F8301414
:1048A0006B6090F83D340C4009332244DBB222FAAD
:1048B00003F406463CB12B7A3BB12B6801332B60E5
:1048C000013C002CF7D1012070BDD6F828342968AE
:1048D0000133994202D94FF0FF3070BD2A4630466D
:1048E000FFF74AFE40B20128EAD070BDD0F8283464
:1048F00001338B4201D2FF207047FFF73DBE00BF5E
:1049000001290DD9D0F828340133994210B403D9C4
:1049100000205DF8044B70475DF8044BFFF746BE7E
:1049200000207047F0B50C4683B005460E46D5F81A
:10493000283401339C4202D9002003B0F0BD01AA03
:1049400021462846FFF718FE47B2002FF4DB012C62
:10495000F2D9D5F8283401339C42EDD80022214603
:104960002846FFF723FE0028E6D0019B01349C4235
:104970000BD1002FDBD13B46A21B31462846FFF767
:10498000FDFE0028D8D003B0F0BDA21B31460023A5
:104990002846FFF7F3FE0028CED0019C002FCCD094
:1049A0002646C4E72DE9F8430024D0F82464804665
:1049B00000F5037725463146002238460136FFF7D9
:1049C000ABFD30B300F1FF3ED8F828C41EF8010F4C
:1049D000FF2805F5805913D048B108220123184259
:1049E0004FEA430118BF0134013ACBB2F7D1083581
:1049F000AC450AD94D45DED01EF8010FFF28EBD19A
:104A00000835AC4504F10804F4D8C4EB0C00BDE84B
:104A1000F883BDE8F88300BF10B50446D0F82C1425
:104A2000FFF700FF94F83D340933DBB2984010BD26
:104A30007E2808D8A0F16103192B8CBF0023202306
:104A4000C01A80B2704730B40023234D352405E0EE
:104A500035F8221081428CBF14461346E11A012911
:104A600003EB5102F4D89BB21B4935F82320904246
:104A700019D24B240023194D05E035F8221081424C
:104A80008CBF14461346E11A012903EB5102F4D8F6
:104A90009BB2124A35F82310814204BF02EB830314
:104AA000588830BC704701EB8303821AD9788A4258
:104AB000DFDA93F90230012B08D023B19BB21844FE
:104AC00080B230BC70474EF2A033F8E702F001022A
:104AD000801A80B2E5E700BF3C1E0100101D0100F6
:104AE000C9B110B40144D30343EA520310F8012BB7
:104AF000A2F16104192C9CBF203AD2B212FA83F2BF
:104B000092B2D30343EA5202814292B2EBD11046F1
:104B10005DF8044B70471046704700BF43B370B454
:104B200044887E2C1ED81344CD180A44023012F853
:104B3000013BE4B2A3F161011929A4F1610194BF21
:104B400020260026192994BF202100219B1B641ACE
:104B5000DBB2E4B29C4205D1AA4206D030F8024F43
:104B60007E2CE4D9002070BC7047012070BC7047D7
:104B70000120704738B504460D462422002108F074
:104B8000D7FEA560EB79102B08D0202B04D1402351
:104B900001202370A07038BD002038BD20230120E3
:104BA0002370A07038BD00BF024638B552F8105FC0
:104BB00004462946806801F09DFA50B155B1236939
:104BC0000135AB42A37818BF03F0BF0363F07F0346
:104BD000A37038BDA37843F04003F7E72DE9F04117
:104BE000037803F020032BB903F0FF0441691F4B46
:104BF000994203D900263046BDE8F0810546FFF70B
:104C0000D3FF06460028F5D02969A86801F010FAFC
:104C10000746A86839462430052201F0D1F98046BC
:104C20000028E7D04FF40072214608F081FEAB68FF
:104C30001A79012A10D9012403E0AB681A79A2423B
:104C40000AD918680368E1199B69424698470134FC
:104C5000E4B20028F1D1CDE79B7969694FF4007285
:104C600002FA03F311FA83F36B61C4E7FFFD1F003F
:104C700010B5044680680A462430A16901F0A0F905
:104C800020B1A38803F00F0300EB431010BD00BF59
:104C900030B590F90230002B83B0044619DBA568CB
:104CA00005F1240001F0BCF930B9637843F0010349
:104CB0006370002003B030BD05F50C7001F0B0F951
:104CC0000028F2D0286803685B6998470028ECD078
:104CD000F0E70121FFF7CCFF05460028E5D0037877
:104CE000E52BE2D023780D4A1B0744BFE369C3617B
:104CF000236A126843831B0C838252B10DF10601B3
:104D000001A89047BDF80430BDF806202B836B82C4
:104D1000EA82A37803F07F03A370C0E70421FF1F9A
:104D200010B50378044623B900232370A370012033
:104D300010BDFFF7ADFF00232370A37010BD00BFAF
:104D400038B5037805460C46B3B928460021FFF76D
:104D50008FFFA8B1016842688368C568E56021607B
:104D60006260A360016942698369C569E561216187
:104D70006261A361012038BDFFF78AFF0028E4D1FA
:104D8000002038BDF0B5064693B03578019200207A
:104D90008DF824008DF825008DF826002DB91F46CA
:104DA0000B7813F0700F0C4602D1002013B0F0BD49
:104DB00013782F2B104617D10130019003782F2B39
:104DC000FAD0002B35D0A16809A8FFF7D3FE002840
:104DD000EBD0019809AC07E03046FFF759FF0023FC
:104DE00001983370B37009AC01AA03A900F092FBDB
:104DF00003AA214601230028D7D0019D2D783046F3
:104E00007DB100F0FFFD354609AC0028CDD00FCDB7
:104E10000FC40FCD0FC433782A682260002BDED078
:104E2000DAE73B4603AA2146304600F0EBFD13B01B
:104E3000F0BDA1683046FFF79DFEB7E719B101F25A
:104E40003C41FFF79FBF0846704700BF03780BB196
:104E500000207047FFF78EBE2DE9F04F8378DF0703
:104E600083B0054640F190800F4601780E079146C9
:104E700000F193808C0608D5826843691289C3EBE0
:104E800042139BB2994528BF9946B9F1000F00F033
:104E9000AA806B69AA6888064E464FF0000805F1A3
:104EA000100AC3F3080B3FD5116A01EB5321BBF184
:104EB000000F53D1B6F5007F50D3D36A99424DD03D
:104EC000B6F5806F72D328788006C6F3472B06D4D8
:104ED0001079C8EB0000C0B2834528BF83469942D1
:104EE0004FEA4B240BD35B44994208D202F12400D1
:104EF000019101F095F8002846D0AA680199106840
:104F000002685B46D2F80CB03A46D84700283BD03E
:104F10006B69361B234427446B6164D02978AA68E7
:104F20008806C3F3080BBFD492F8058008EA53281B
:104F3000BBF1000F38D1B8F1000F35D1002B3FD1B4
:104F400049064CBF116A296A2961104601F070F8C0
:104F5000AA6808EB0001BBF1000FABD002F12400FE
:104F6000002201F02DF878B1CBF50074B44228BFCF
:104F7000344600EB0B012246384604F0D3FEC7E767
:104F80002B7813F0700F2FD16B784FF0FF3043F078
:104F900002036B7003B0BDE8F08FC36942699B1ACE
:104FA000994528BF994670E72969CEE710680368DC
:104FB0003A469B6898470028E6D04FF40074A7E76C
:104FC0000B0705D5AB785C0602D529690131BBE733
:104FD00010462969524601F031F80028D4DBCFD0C1
:104FE000AA682969B1E70026C6EB090003B0BDE84D
:104FF000F08F00BF70B582B001220DF107010446A9
:1050000046690569FFF728FF012808BF9DF80700DA
:10501000666118BF4FF0FF30256102B070BD00BF60
:1050200030B54369C3F3431583B0044605B189B96C
:1050300001220DF107012046FFF70EFF40B20128C3
:105040000BD163691F336361A068303000EB4510FA
:1050500003B030BD20334361F6E7002003B030BD1C
:105060002DE9F041037807690446B3B142698A42E9
:105070000E463AD041B92161A378666123F020033E
:10508000A3700120BDE8F08118070AD499060BD55A
:10509000A3681B89B6EB431FEED927610020BDE84A
:1050A000F081E1698E42F8D8D4F808E09EF8065005
:1050B0000935E9B2501E751EC840CD40A84200D83F
:1050C000B2B95B064CBFDEF82030236A236104F1DD
:1050D00010084246002DCFD02169A06800F0AEFF35
:1050E000002805F1FF35F4DCD7E70120BDE8F081A9
:1050F0002D1AECE72DE9F0410D46904600212422BF
:1051000004461F469DF8186008F012FCA8682B6A38
:10511000E36000F1300208F00F0302EB4312A060DD
:10512000A4F80480D17A0B0711D401F01701217083
:10513000D37AE67013F0180F04BF41F00801217014
:1051400017F0320F08D0237813F0110F04D000208D
:105150002070A070BDE8F08107F00705A570918A66
:10516000538BC66AA661FE0643EA014106D5BA071B
:10517000EDD591B965F07F05A57002E02162D36994
:10518000E361BB0602D40120BDE8F081E16920465D
:10519000FFF766FF0028F6D1D9E700F0E7FF002807
:1051A000D5D0A578E6E700BF03781BB90B7813F0DC
:1051B000700F01D1002070472DE9F0474E6916F0BD
:1051C0001F0782B021D191460D468046BA4601E0C4
:1051D00000276E6900212846FFF722FFA8B1037857
:1051E0009BB12E2BF4D0E52BF2D0C27A110710D54B
:1051F0000F2AEDD15A06ECD503F01F0790F80DA049
:10520000E7E700F05DF9824505D0002002B0BDE877
:10521000F087002FF5D100974B46C6F34F12294671
:105220004046FFF767FFF1E703780BB1FFF730BDAA
:105230000120704783789B071AD5036AB3B110B574
:10524000016982B00446F1B9019301621946A06870
:1052500000F08CFFA8B1A37822786169E16163F066
:105260007F03A370EAB9012002B010BD012070478E
:10527000002070476FF070422169A06800F00EFFB7
:1052800058B90020F0E702AA002342F8043D8068E4
:1052900000F0D4FE0028F4DBECD1019B002BDAD027
:1052A000D4E72046FFF7F4FCDEE700BF2DE9F04726
:1052B00083789D07044607D4637843F00103637045
:1052C0004FF0FF30BDE8F08788465907914600F15E
:1052D000C2806369DA439145EED8B9F1000F00F05E
:1052E000C1804E464FF0000A30E000297BD0A27802
:1052F00052067FD5E2699A427CD90131216100F0E2
:1053000097FEB6F5007F01463DD26269E369A06869
:10531000B6F5007F354628BF4FF400759A427AD320
:105320000522243000F04CFE0028C5D038442A461F
:1053300041462F4404F0F6FCB7F5007F79D063694D
:10534000761B2B44A844636100F08C80A06821691F
:10535000427912EA5325C3F308070CD1002FC4D0B9
:1053600000F066FE0146C7F50075B54228BF354618
:10537000A0680122D5E700F05BFE2918002FF2D1CA
:10538000B6F5007FC1D3B6F5806FA0681DD3027952
:10539000C76A521BC6F34723D2B2934228BF1346B3
:1053A0008F424FEA432508D81F448F4205D980F821
:1053B00024A04FF0FF32C262A0680068076842462E
:1053C000FF69B8470028BAD176E7C36A8B4229D073
:1053D0000068036842469B69984700283FF46CAF19
:1053E0004FF40075ABE7216A59B3216100F020FE4C
:1053F0000146C5E704F1100200F020FE0028FFF688
:105400005BAF05D12046FFF7CFFB00283FF454AF38
:10541000A0682169EAE7A37813F0200F0CBF0122EE
:1054200005227EE780F824A04FF0FF33C362A06816
:10543000CEE7A068243000F0F3FD00287FF47FAFB2
:105440003AE72046FFF7B0FB00283FF435AF21696B
:105450002162A068CAE7C169FFF702FE00283FF495
:105460002BAF36E7E2699A4209D30A4B1B6873B146
:10547000A37863F07F03A3704846BDE8F087A27865
:10548000E36162F07F03A3704846BDE8F0874846B9
:10549000BDE8F0870421FF1F04290CD90A2906D989
:1054A0000C299ABF00EB4101C8880020704700EB2F
:1054B00041018888704700EB4101B1F80100704755
:1054C00010B4421E00F10A04002012F8011F430824
:1054D00043EAC01051FA80F09442C0B2F5D15DF8B1
:1054E000044B704738B5CB6873B105460C4624228F
:1054F000002108F01DFA102301202B70A870A2686B
:10550000E3682B62AA6038BD8968BDE83840FFF7C0
:105510009DBC00BF2DE9F04F0378202B03D110F87C
:10552000013F202BFBD088600378002B00F007811F
:105530002F2B2FD05C2B22D0A3F12204E4B21D2C00
:1055400020D9DFF818E2461C00247C2BA3F12005AB
:10555000374614D05E2D12D816F8013BA3F1220570
:10556000EDB20134002B00F0D3802F2B13D05C2B35
:105570002EFA05F703D01D2DE7D8FF07E5D500204B
:10558000BDE8F08F754D25FA04F4E407D9D5002065
:10559000BDE8F08F002407193E4625462F2302E080
:1055A00016F8013F0135202BFAD02F2BF8D00544F7
:1055B00015604CB13A4612F8013D2E2B02D0202B3B
:1055C00040F0A980013CF6D14FF0FF3523464B60F7
:1055D00001F1170601F10C03202203F8012FB34259
:1055E000FBD1461E002200E0013216F8013F2E2BAF
:1055F000FAD0202BF8D0B2FA82FC6E1C4FEA5C1C69
:105600000CD0475D2E2F00EB050604D106E016F8FE
:10561000017D2E2F02D015F1FF35F8D2A2424FF0B6
:10562000000980F291804E46CA4607274FF00808CD
:1056300025E02E2B47D0222B0BD07C2B09D0A3F1B9
:105640002A0EBEF1050F48D9A3F13A0EBEF1050F9F
:1056500058D8954239D0B74229D34FF0000C5F2378
:1056600006F1010E01EB060B5FFA8EF6062E8BF8A3
:105670000D3000D80E730132A24207DA835C202B72
:10568000D7D10132A2424FF0000CF7DB4B7B202B2D
:105690003FF475AFBCF1000F47D01AEA090F18BFED
:1056A0004FF0020981F800900120BDE8F08F0A2F29
:1056B00037D0954235DB2A460A2708264FF01008D6
:1056C0004FF0000CD7E79542DBD10A2F29D02A46AC
:1056D0000A2708264FF01008CDE72D2BB9D1A3F1EA
:1056E000210EBEF15D0FB4D89542EED0B742DED3A5
:1056F000A3F1610EBEF1190F28D8203BDBB248EAB6
:105700000909ADE7A3F15B0EBEF1020FA1D9E6E7EF
:10571000176007194EE7FF2C3FF731AF651E234690
:1057200055E74B7B202B3FF42AAF0B7B0B4401202A
:105730007E24312208705C739A73BDE8F08F10608C
:105740001C464FF0FF3542E7CA469FE7A3F1410EE2
:10575000BEF1190F98BF48EA0A0A81E70101003536
:105760002DE9F0478AB0C37800258DF804508DF8F4
:1057700005508DF80650002B4CD081460C4601A8F0
:105780004946FFF7AFFE00283ED099F80330002BC2
:105790003AD04FF00108B9F80410C8EB01014901F3
:1057A00001A8FFF75DFC78B3002101A8FFF738FCE2
:1057B000064648B3C37A0F2B26D1037803F01F03A4
:1057C000984521D105F10D07AA46C5EB0A01C9B2DA
:1057D0003046FFF761FED8B123687E2894BFC1B27E
:1057E0003F210AF1010A1B68204698475745ECD132
:1057F0003D4633785B0612D408F1010899F803306E
:105800005FFA88F84345C6D200200AB0BDE8F087A9
:105810005546EEE700F088FB0AB0BDE8F087284661
:10582000F3E700BF2DE9F04182788AB000239207A8
:105830008DF804308DF805308DF8063022D5016AD8
:10584000054621BB01212846FFF712FAD0B1411EBF
:1058500000F10A070024620811F8016F42EAC4133C
:1058600056FA83F38F42DCB2F5D14FF0E50880F8A9
:105870000080AE68002306F124002B70AB7000F0AE
:10588000CFFB50B9002630460AB0BDE8F0818068F1
:1058900000F06CFC0028D5D1F4E706F50C7000F0A0
:1058A000BFFB0028EED0306803685B699847064666
:1058B0000028E7D0EB78002BE5D001A82946FFF7B8
:1058C00011FE0028DED0EB78002BDBD001271FE093
:1058D00001A8FFF7A5FB7B1C0028D3D0C27A0F2AB2
:1058E000D0D1027802F01F018F42DFB2CAD1437BD0
:1058F000A342C7D180F80080A96891F8243043F012
:10590000010381F8243053060CD4EB78BB42B9D3A1
:10591000A988C91B490101A8FFF7A2FB00210028A3
:10592000D6D1AFE7AC6804F1240000F079FB002881
:10593000A8D004F50C7000F073FB0028A2D02068FA
:1059400003685B69984700289CD09CE72DE9F843E1
:105950000F7B0E46044601F10D054FF002084FF093
:105960007E097068B16808EB00039BB240B108443F
:1059700011F8012B03EB4313534088429BB2F7D13C
:10598000032F28BF03273A1DD2B203F00F01B0182E
:10599000013A0929D2B294BF3031373197424FEAE8
:1059A00013134173F1D3F319002183F80D902046AE
:1059B000FFF756FB01212046FFF732FB0B2203467F
:1059C0000146A8B193F800E02846BEF1000F15D0BB
:1059D000DB7A1B07EED407F015FF0028EAD108F1A7
:1059E00001081FFA88F8B8F1640FBAD1BDE8F8834E
:1059F0006078B0FA80F04009BDE8F8830120BDE886
:105A0000F88300BF2DE9F04F0C7814F0700F8DB0C3
:105A100001D004781CB100200DB0BDE8F08F1478DF
:105A2000D2F804A0A40742D14FF001090E469346D4
:105A30000990002130460F460793FFF711FB0BF149
:105A40000D03069703973C46B8460597049301213A
:105A500030467569FFF7E4FAC5F34F150346002891
:105A600000F08C800278E52A3AD0002A38D04C45E4
:105A700038BF00242E2A30D0D97A0F293ED001F029
:105A8000080101F0FF0241BBB8F1000F40F017819F
:105A900018460B22049907F0B5FE0028D7D19BF8D1
:105AA0000030DB0740F11F8101230593CFE7B14DA3
:105AB0000AF10C04A5FB04494FEA990909F101090F
:105AC0005FFA89F9B2E703990139C9B28A420391B1
:105AD00003D15A7B069991421BD04FF00008B6E7DC
